{
    "_format": "hh-sol-artifact-1",
    "contractName": "GhoToken",
    "sourceName": "contracts/gho/gho-core/src/contracts/gho/GhoToken.sol",
    "abi": [
        {
            "inputs": [
                {
                    "internalType": "address",
                    "name": "admin",
                    "type": "address"
                }
            ],
            "stateMutability": "nonpayable",
            "type": "constructor"
        },
        {
            "anonymous": false,
            "inputs": [
                {
                    "indexed": true,
                    "internalType": "address",
                    "name": "owner",
                    "type": "address"
                },
                {
                    "indexed": true,
                    "internalType": "address",
                    "name": "spender",
                    "type": "address"
                },
                {
                    "indexed": false,
                    "internalType": "uint256",
                    "name": "value",
                    "type": "uint256"
                }
            ],
            "name": "Approval",
            "type": "event"
        },
        {
            "anonymous": false,
            "inputs": [
                {
                    "indexed": true,
                    "internalType": "address",
                    "name": "facilitatorAddress",
                    "type": "address"
                },
                {
                    "indexed": true,
                    "internalType": "bytes32",
                    "name": "label",
                    "type": "bytes32"
                },
                {
                    "indexed": false,
                    "internalType": "uint256",
                    "name": "bucketCapacity",
                    "type": "uint256"
                }
            ],
            "name": "FacilitatorAdded",
            "type": "event"
        },
        {
            "anonymous": false,
            "inputs": [
                {
                    "indexed": true,
                    "internalType": "address",
                    "name": "facilitatorAddress",
                    "type": "address"
                },
                {
                    "indexed": false,
                    "internalType": "uint256",
                    "name": "oldCapacity",
                    "type": "uint256"
                },
                {
                    "indexed": false,
                    "internalType": "uint256",
                    "name": "newCapacity",
                    "type": "uint256"
                }
            ],
            "name": "FacilitatorBucketCapacityUpdated",
            "type": "event"
        },
        {
            "anonymous": false,
            "inputs": [
                {
                    "indexed": true,
                    "internalType": "address",
                    "name": "facilitatorAddress",
                    "type": "address"
                },
                {
                    "indexed": false,
                    "internalType": "uint256",
                    "name": "oldLevel",
                    "type": "uint256"
                },
                {
                    "indexed": false,
                    "internalType": "uint256",
                    "name": "newLevel",
                    "type": "uint256"
                }
            ],
            "name": "FacilitatorBucketLevelUpdated",
            "type": "event"
        },
        {
            "anonymous": false,
            "inputs": [
                {
                    "indexed": true,
                    "internalType": "address",
                    "name": "facilitatorAddress",
                    "type": "address"
                }
            ],
            "name": "FacilitatorRemoved",
            "type": "event"
        },
        {
            "anonymous": false,
            "inputs": [
                {
                    "indexed": true,
                    "internalType": "bytes32",
                    "name": "role",
                    "type": "bytes32"
                },
                {
                    "indexed": true,
                    "internalType": "bytes32",
                    "name": "previousAdminRole",
                    "type": "bytes32"
                },
                {
                    "indexed": true,
                    "internalType": "bytes32",
                    "name": "newAdminRole",
                    "type": "bytes32"
                }
            ],
            "name": "RoleAdminChanged",
            "type": "event"
        },
        {
            "anonymous": false,
            "inputs": [
                {
                    "indexed": true,
                    "internalType": "bytes32",
                    "name": "role",
                    "type": "bytes32"
                },
                {
                    "indexed": true,
                    "internalType": "address",
                    "name": "account",
                    "type": "address"
                },
                {
                    "indexed": true,
                    "internalType": "address",
                    "name": "sender",
                    "type": "address"
                }
            ],
            "name": "RoleGranted",
            "type": "event"
        },
        {
            "anonymous": false,
            "inputs": [
                {
                    "indexed": true,
                    "internalType": "bytes32",
                    "name": "role",
                    "type": "bytes32"
                },
                {
                    "indexed": true,
                    "internalType": "address",
                    "name": "account",
                    "type": "address"
                },
                {
                    "indexed": true,
                    "internalType": "address",
                    "name": "sender",
                    "type": "address"
                }
            ],
            "name": "RoleRevoked",
            "type": "event"
        },
        {
            "anonymous": false,
            "inputs": [
                {
                    "indexed": true,
                    "internalType": "address",
                    "name": "from",
                    "type": "address"
                },
                {
                    "indexed": true,
                    "internalType": "address",
                    "name": "to",
                    "type": "address"
                },
                {
                    "indexed": false,
                    "internalType": "uint256",
                    "name": "value",
                    "type": "uint256"
                }
            ],
            "name": "Transfer",
            "type": "event"
        },
        {
            "inputs": [],
            "name": "BUCKET_MANAGER_ROLE",
            "outputs": [
                {
                    "internalType": "bytes32",
                    "name": "",
                    "type": "bytes32"
                }
            ],
            "stateMutability": "view",
            "type": "function"
        },
        {
            "inputs": [],
            "name": "DEFAULT_ADMIN_ROLE",
            "outputs": [
                {
                    "internalType": "bytes32",
                    "name": "",
                    "type": "bytes32"
                }
            ],
            "stateMutability": "view",
            "type": "function"
        },
        {
            "inputs": [],
            "name": "DOMAIN_SEPARATOR",
            "outputs": [
                {
                    "internalType": "bytes32",
                    "name": "",
                    "type": "bytes32"
                }
            ],
            "stateMutability": "view",
            "type": "function"
        },
        {
            "inputs": [],
            "name": "FACILITATOR_MANAGER_ROLE",
            "outputs": [
                {
                    "internalType": "bytes32",
                    "name": "",
                    "type": "bytes32"
                }
            ],
            "stateMutability": "view",
            "type": "function"
        },
        {
            "inputs": [],
            "name": "PERMIT_TYPEHASH",
            "outputs": [
                {
                    "internalType": "bytes32",
                    "name": "",
                    "type": "bytes32"
                }
            ],
            "stateMutability": "view",
            "type": "function"
        },
        {
            "inputs": [
                {
                    "internalType": "address",
                    "name": "facilitatorAddress",
                    "type": "address"
                },
                {
                    "internalType": "string",
                    "name": "facilitatorLabel",
                    "type": "string"
                },
                {
                    "internalType": "uint128",
                    "name": "bucketCapacity",
                    "type": "uint128"
                }
            ],
            "name": "addFacilitator",
            "outputs": [],
            "stateMutability": "nonpayable",
            "type": "function"
        },
        {
            "inputs": [
                {
                    "internalType": "address",
                    "name": "",
                    "type": "address"
                },
                {
                    "internalType": "address",
                    "name": "",
                    "type": "address"
                }
            ],
            "name": "allowance",
            "outputs": [
                {
                    "internalType": "uint256",
                    "name": "",
                    "type": "uint256"
                }
            ],
            "stateMutability": "view",
            "type": "function"
        },
        {
            "inputs": [
                {
                    "internalType": "address",
                    "name": "spender",
                    "type": "address"
                },
                {
                    "internalType": "uint256",
                    "name": "amount",
                    "type": "uint256"
                }
            ],
            "name": "approve",
            "outputs": [
                {
                    "internalType": "bool",
                    "name": "",
                    "type": "bool"
                }
            ],
            "stateMutability": "nonpayable",
            "type": "function"
        },
        {
            "inputs": [
                {
                    "internalType": "address",
                    "name": "",
                    "type": "address"
                }
            ],
            "name": "balanceOf",
            "outputs": [
                {
                    "internalType": "uint256",
                    "name": "",
                    "type": "uint256"
                }
            ],
            "stateMutability": "view",
            "type": "function"
        },
        {
            "inputs": [
                {
                    "internalType": "uint256",
                    "name": "amount",
                    "type": "uint256"
                }
            ],
            "name": "burn",
            "outputs": [],
            "stateMutability": "nonpayable",
            "type": "function"
        },
        {
            "inputs": [],
            "name": "decimals",
            "outputs": [
                {
                    "internalType": "uint8",
                    "name": "",
                    "type": "uint8"
                }
            ],
            "stateMutability": "view",
            "type": "function"
        },
        {
            "inputs": [
                {
                    "internalType": "address",
                    "name": "facilitator",
                    "type": "address"
                }
            ],
            "name": "getFacilitator",
            "outputs": [
                {
                    "components": [
                        {
                            "internalType": "uint128",
                            "name": "bucketCapacity",
                            "type": "uint128"
                        },
                        {
                            "internalType": "uint128",
                            "name": "bucketLevel",
                            "type": "uint128"
                        },
                        {
                            "internalType": "string",
                            "name": "label",
                            "type": "string"
                        }
                    ],
                    "internalType": "struct IGhoToken.Facilitator",
                    "name": "",
                    "type": "tuple"
                }
            ],
            "stateMutability": "view",
            "type": "function"
        },
        {
            "inputs": [
                {
                    "internalType": "address",
                    "name": "facilitator",
                    "type": "address"
                }
            ],
            "name": "getFacilitatorBucket",
            "outputs": [
                {
                    "internalType": "uint256",
                    "name": "",
                    "type": "uint256"
                },
                {
                    "internalType": "uint256",
                    "name": "",
                    "type": "uint256"
                }
            ],
            "stateMutability": "view",
            "type": "function"
        },
        {
            "inputs": [],
            "name": "getFacilitatorsList",
            "outputs": [
                {
                    "internalType": "address[]",
                    "name": "",
                    "type": "address[]"
                }
            ],
            "stateMutability": "view",
            "type": "function"
        },
        {
            "inputs": [
                {
                    "internalType": "bytes32",
                    "name": "role",
                    "type": "bytes32"
                }
            ],
            "name": "getRoleAdmin",
            "outputs": [
                {
                    "internalType": "bytes32",
                    "name": "",
                    "type": "bytes32"
                }
            ],
            "stateMutability": "view",
            "type": "function"
        },
        {
            "inputs": [
                {
                    "internalType": "bytes32",
                    "name": "role",
                    "type": "bytes32"
                },
                {
                    "internalType": "address",
                    "name": "account",
                    "type": "address"
                }
            ],
            "name": "grantRole",
            "outputs": [],
            "stateMutability": "nonpayable",
            "type": "function"
        },
        {
            "inputs": [
                {
                    "internalType": "bytes32",
                    "name": "role",
                    "type": "bytes32"
                },
                {
                    "internalType": "address",
                    "name": "account",
                    "type": "address"
                }
            ],
            "name": "hasRole",
            "outputs": [
                {
                    "internalType": "bool",
                    "name": "",
                    "type": "bool"
                }
            ],
            "stateMutability": "view",
            "type": "function"
        },
        {
            "inputs": [
                {
                    "internalType": "address",
                    "name": "account",
                    "type": "address"
                },
                {
                    "internalType": "uint256",
                    "name": "amount",
                    "type": "uint256"
                }
            ],
            "name": "mint",
            "outputs": [],
            "stateMutability": "nonpayable",
            "type": "function"
        },
        {
            "inputs": [],
            "name": "name",
            "outputs": [
                {
                    "internalType": "string",
                    "name": "",
                    "type": "string"
                }
            ],
            "stateMutability": "view",
            "type": "function"
        },
        {
            "inputs": [
                {
                    "internalType": "address",
                    "name": "",
                    "type": "address"
                }
            ],
            "name": "nonces",
            "outputs": [
                {
                    "internalType": "uint256",
                    "name": "",
                    "type": "uint256"
                }
            ],
            "stateMutability": "view",
            "type": "function"
        },
        {
            "inputs": [
                {
                    "internalType": "address",
                    "name": "owner",
                    "type": "address"
                },
                {
                    "internalType": "address",
                    "name": "spender",
                    "type": "address"
                },
                {
                    "internalType": "uint256",
                    "name": "value",
                    "type": "uint256"
                },
                {
                    "internalType": "uint256",
                    "name": "deadline",
                    "type": "uint256"
                },
                {
                    "internalType": "uint8",
                    "name": "v",
                    "type": "uint8"
                },
                {
                    "internalType": "bytes32",
                    "name": "r",
                    "type": "bytes32"
                },
                {
                    "internalType": "bytes32",
                    "name": "s",
                    "type": "bytes32"
                }
            ],
            "name": "permit",
            "outputs": [],
            "stateMutability": "nonpayable",
            "type": "function"
        },
        {
            "inputs": [
                {
                    "internalType": "address",
                    "name": "facilitatorAddress",
                    "type": "address"
                }
            ],
            "name": "removeFacilitator",
            "outputs": [],
            "stateMutability": "nonpayable",
            "type": "function"
        },
        {
            "inputs": [
                {
                    "internalType": "bytes32",
                    "name": "role",
                    "type": "bytes32"
                },
                {
                    "internalType": "address",
                    "name": "account",
                    "type": "address"
                }
            ],
            "name": "renounceRole",
            "outputs": [],
            "stateMutability": "nonpayable",
            "type": "function"
        },
        {
            "inputs": [
                {
                    "internalType": "bytes32",
                    "name": "role",
                    "type": "bytes32"
                },
                {
                    "internalType": "address",
                    "name": "account",
                    "type": "address"
                }
            ],
            "name": "revokeRole",
            "outputs": [],
            "stateMutability": "nonpayable",
            "type": "function"
        },
        {
            "inputs": [
                {
                    "internalType": "address",
                    "name": "facilitator",
                    "type": "address"
                },
                {
                    "internalType": "uint128",
                    "name": "newCapacity",
                    "type": "uint128"
                }
            ],
            "name": "setFacilitatorBucketCapacity",
            "outputs": [],
            "stateMutability": "nonpayable",
            "type": "function"
        },
        {
            "inputs": [
                {
                    "internalType": "bytes4",
                    "name": "interfaceId",
                    "type": "bytes4"
                }
            ],
            "name": "supportsInterface",
            "outputs": [
                {
                    "internalType": "bool",
                    "name": "",
                    "type": "bool"
                }
            ],
            "stateMutability": "view",
            "type": "function"
        },
        {
            "inputs": [],
            "name": "symbol",
            "outputs": [
                {
                    "internalType": "string",
                    "name": "",
                    "type": "string"
                }
            ],
            "stateMutability": "view",
            "type": "function"
        },
        {
            "inputs": [],
            "name": "totalSupply",
            "outputs": [
                {
                    "internalType": "uint256",
                    "name": "",
                    "type": "uint256"
                }
            ],
            "stateMutability": "view",
            "type": "function"
        },
        {
            "inputs": [
                {
                    "internalType": "address",
                    "name": "to",
                    "type": "address"
                },
                {
                    "internalType": "uint256",
                    "name": "amount",
                    "type": "uint256"
                }
            ],
            "name": "transfer",
            "outputs": [
                {
                    "internalType": "bool",
                    "name": "",
                    "type": "bool"
                }
            ],
            "stateMutability": "nonpayable",
            "type": "function"
        },
        {
            "inputs": [
                {
                    "internalType": "address",
                    "name": "from",
                    "type": "address"
                },
                {
                    "internalType": "address",
                    "name": "to",
                    "type": "address"
                },
                {
                    "internalType": "uint256",
                    "name": "amount",
                    "type": "uint256"
                }
            ],
            "name": "transferFrom",
            "outputs": [
                {
                    "internalType": "bool",
                    "name": "",
                    "type": "bool"
                }
            ],
            "stateMutability": "nonpayable",
            "type": "function"
        }
    ],
    "bytecode": "0x60e06040523480156200001157600080fd5b506040516200233e3803806200233e833981016040819052620000349162000216565b6040518060400160405280600981526020016823b437902a37b5b2b760b91b8152506040518060400160405280600381526020016247484f60e81b81525060128260009081620000859190620002ed565b506001620000948382620002ed565b5060ff81166080524660a052620000aa620000c6565b60c05250620000bf9150600090508262000162565b5062000437565b60007f8b73c3c69bb8fe3d512ecc4cf759cc79239f7b179b0ffacaa9a75d522b39400f6000604051620000fa9190620003b9565b6040805191829003822060208301939093528101919091527fc89efdaa54c0f20c7adf612882df0950f5a951637e0307cdcb4c672f298b8bc660608201524660808201523060a082015260c00160405160208183030381529060405280519060200120905090565b6200016e828262000172565b5050565b60008281526006602090815260408083206001600160a01b038516845290915290205460ff166200016e5760008281526006602090815260408083206001600160a01b03851684529091529020805460ff19166001179055620001d23390565b6001600160a01b0316816001600160a01b0316837f2f8788117e7eff1d82e926ec794901d17c78024a50270940304540a733656f0d60405160405180910390a45050565b6000602082840312156200022957600080fd5b81516001600160a01b03811681146200024157600080fd5b9392505050565b634e487b7160e01b600052604160045260246000fd5b600181811c908216806200027357607f821691505b6020821081036200029457634e487b7160e01b600052602260045260246000fd5b50919050565b601f821115620002e857600081815260208120601f850160051c81016020861015620002c35750805b601f850160051c820191505b81811015620002e457828155600101620002cf565b5050505b505050565b81516001600160401b0381111562000309576200030962000248565b62000321816200031a84546200025e565b846200029a565b602080601f831160018114620003595760008415620003405750858301515b600019600386901b1c1916600185901b178555620002e4565b600085815260208120601f198616915b828110156200038a5788860151825594840194600190910190840162000369565b5085821015620003a95787850151600019600388901b60f8161c191681555b5050505050600190811b01905550565b6000808354620003c9816200025e565b60018281168015620003e45760018114620003fa576200042b565b60ff19841687528215158302870194506200042b565b8760005260208060002060005b85811015620004225781548a82015290840190820162000407565b50505082870194505b50929695505050505050565b60805160a05160c051611ed76200046760003960006106cc0152600061069c015260006102400152611ed76000f3fe608060405234801561001057600080fd5b506004361061016a5760003560e01c806301ffc9a71461016f57806306fdde0314610197578063095ea7b3146101ac57806318160ddd146101bf5780631ec90f2e146101d657806323b872dd146101eb578063248a9ca3146101fe5780632f2ff15d1461021157806330adf81f14610226578063313ce5671461023b5780633644e5151461027457806336568abe1461027c57806340c10f191461028f57806342966c68146102a2578063433bef44146102b5578063550d9964146102ca57806370a08231146102df5780637ecebe00146102ff5780637fc24def1461031f57806391d148541461033257806395d89b4114610345578063a11812ba1461034d578063a217fddf14610360578063a9059cbb14610368578063aa02f94a1461037b578063af93df57146103ce578063d46ec0ed146103e1578063d505accf14610401578063d547741f14610414578063dd62ed3e14610427575b600080fd5b61018261017d366004611754565b610452565b60405190151581526020015b60405180910390f35b61019f610489565b60405161018e91906117ce565b6101826101ba3660046117fd565b610517565b6101c860025481565b60405190815260200161018e565b6101de610571565b60405161018e9190611827565b6101826101f9366004611874565b610582565b6101c861020c3660046118b0565b610662565b61022461021f3660046118c9565b610677565b005b6101c8600080516020611e6283398151915281565b6102627f000000000000000000000000000000000000000000000000000000000000000081565b60405160ff909116815260200161018e565b6101c8610698565b61022461028a3660046118c9565b6106ee565b61022461029d3660046117fd565b610771565b6102246102b03660046118b0565b6108a1565b6101c8600080516020611de283398151915281565b6101c8600080516020611e2283398151915281565b6101c86102ed3660046118f5565b60036020526000908152604090205481565b6101c861030d3660046118f5565b60056020526000908152604090205481565b61022461032d366004611927565b61096a565b6101826103403660046118c9565b610ade565b61019f610b09565b61022461035b3660046118f5565b610b16565b6101c8600081565b6101826103763660046117fd565b610c63565b6103b96103893660046118f5565b6001600160a01b03166000908152600760205260409020546001600160801b0380821692600160801b9092041690565b6040805192835260208301919091520161018e565b6102246103dc3660046119ba565b610cc9565b6103f46103ef3660046118f5565b610d98565b60405161018e91906119e4565b61022461040f366004611a27565b610e91565b6102246104223660046118c9565b6110b8565b6101c8610435366004611a9a565b600460209081526000928352604080842090915290825290205481565b60006001600160e01b03198216637965db0b60e01b148061048357506301ffc9a760e01b6001600160e01b03198316145b92915050565b6000805461049690611ac4565b80601f01602080910402602001604051908101604052809291908181526020018280546104c290611ac4565b801561050f5780601f106104e45761010080835404028352916020019161050f565b820191906000526020600020905b8154815290600101906020018083116104f257829003601f168201915b505050505081565b3360008181526004602090815260408083206001600160a01b03871680855292528083208590555191929091600080516020611e82833981519152906105609086815260200190565b60405180910390a350600192915050565b606061057d60086110d4565b905090565b6001600160a01b038316600090815260046020908152604080832033845290915281205460001981146105de576105b98382611b14565b6001600160a01b03861660009081526004602090815260408083203384529091529020555b6001600160a01b03851660009081526003602052604081208054859290610606908490611b14565b90915550506001600160a01b0380851660008181526003602052604090819020805487019055519091871690600080516020611e428339815191529061064f9087815260200190565b60405180910390a3506001949350505050565b60009081526006602052604090206001015490565b61068082610662565b610689816110e8565b61069383836110f5565b505050565b60007f000000000000000000000000000000000000000000000000000000000000000046146106c95761057d61117b565b507f000000000000000000000000000000000000000000000000000000000000000090565b6001600160a01b03811633146107635760405162461bcd60e51b815260206004820152602f60248201527f416363657373436f6e74726f6c3a2063616e206f6e6c792072656e6f756e636560448201526e103937b632b9903337b91039b2b63360891b60648201526084015b60405180910390fd5b61076d8282611215565b5050565b600081116107b75760405162461bcd60e51b81526020600482015260136024820152721253959053125117d352539517d05353d55395606a1b604482015260640161075a565b33600090815260076020526040812080549091600160801b9091046001600160801b0316906107e68483611b27565b83549091506001600160801b031681111561084f5760405162461bcd60e51b8152602060048201526024808201527f464143494c495441544f525f4255434b45545f43415041434954595f455843456044820152631151115160e21b606482015260840161075a565b82546001600160801b03808316600160801b029116178355610871858561127c565b60408051838152602081018390523391600080516020611e02833981519152910160405180910390a25050505050565b600081116108e75760405162461bcd60e51b81526020600482015260136024820152721253959053125117d095549397d05353d55395606a1b604482015260640161075a565b33600090815260076020526040812080549091600160801b9091046001600160801b0316906109168483611b14565b83546001600160801b03808316600160801b029116178455905061093a33856112d6565b60408051838152602081018390523391600080516020611e0283398151915291015b60405180910390a250505050565b600080516020611de2833981519152610982816110e8565b6001600160a01b03851660009081526007602052604090206001810180546109a990611ac4565b1590506109f55760405162461bcd60e51b815260206004820152601a602482015279464143494c495441544f525f414c52454144595f45584953545360301b604482015260640161075a565b83610a325760405162461bcd60e51b815260206004820152600d60248201526c1253959053125117d310509153609a1b604482015260640161075a565b60018101610a41858783611b9e565b5080546001600160801b0319166001600160801b038416178155610a66600887611338565b508484604051602001610a7a929190611c5e565b60408051601f198184030181529082905280516020918201206001600160801b0386168352916001600160a01b038916917fdabd62626ada7b13e299389e94d768b294e5e24285ed2ffa1e5cd447c99c54ad910160405180910390a3505050505050565b60009182526006602090815260408084206001600160a01b0393909316845291905290205460ff1690565b6001805461049690611ac4565b600080516020611de2833981519152610b2e816110e8565b6001600160a01b03821660009081526007602052604081206001018054610b5490611ac4565b905011610b735760405162461bcd60e51b815260040161075a90611c6e565b6001600160a01b038216600090815260076020526040902054600160801b90046001600160801b031615610bf35760405162461bcd60e51b815260206004820152602160248201527f464143494c495441544f525f4255434b45545f4c4556454c5f4e4f545f5a45526044820152604f60f81b606482015260840161075a565b6001600160a01b038216600090815260076020526040812081815590610c1c6001830182611706565b50610c2a905060088361134d565b506040516001600160a01b038316907fa8fe5b89f35f2ebd6f3f95a7ef215f4bd89179e10c101073ae76cffad14734cf90600090a25050565b33600090815260036020526040812080548391908390610c84908490611b14565b90915550506001600160a01b03831660008181526003602052604090819020805485019055513390600080516020611e42833981519152906105609086815260200190565b600080516020611e22833981519152610ce1816110e8565b6001600160a01b03831660009081526007602052604081206001018054610d0790611ac4565b905011610d265760405162461bcd60e51b815260040161075a90611c6e565b6001600160a01b03831660008181526007602090815260409182902080546001600160801b031981166001600160801b03888116918217909355845192909116808352928201529092917fc795c0a4927c3b6645e4e49a5a519af936b3c1c0e4c323a3f7251063f3f4bb0e910161095c565b6040805160608082018352600080835260208084018290528385018390526001600160a01b038616825260078152908490208451928301855280546001600160801b038082168552600160801b9091041691830191909152600181018054939492939192840191610e0890611ac4565b80601f0160208091040260200160405190810160405280929190818152602001828054610e3490611ac4565b8015610e815780601f10610e5657610100808354040283529160200191610e81565b820191906000526020600020905b815481529060010190602001808311610e6457829003601f168201915b5050505050815250509050919050565b42841015610edb5760405162461bcd60e51b815260206004820152601760248201527614115493525517d11150511312539157d1561412549151604a1b604482015260640161075a565b6000610ee5610698565b6001600160a01b038981166000818152600560209081526040918290208054600181019091558251600080516020611e628339815191528184015280840194909452938c166060840152608083018b905260a083019390935260c08083018a90528151808403909101815260e08301909152805192019190912061190160f01b6101008301526101028201929092526101228101919091526101420160408051601f198184030181528282528051602091820120600080855291840180845281905260ff88169284019290925260608301869052608083018590529092509060019060a0016020604051602081039080840390855afa158015610fec573d6000803e3d6000fd5b5050604051601f1901519150506001600160a01b038116158015906110225750886001600160a01b0316816001600160a01b0316145b61105f5760405162461bcd60e51b815260206004820152600e60248201526d24a72b20a624a22fa9a4a3a722a960911b604482015260640161075a565b6001600160a01b0390811660009081526004602090815260408083208b8516808552908352928190208a905551898152919350918a1691600080516020611e82833981519152910160405180910390a350505050505050565b6110c182610662565b6110ca816110e8565b6106938383611215565b606060006110e183611362565b9392505050565b6110f281336113be565b50565b6110ff8282610ade565b61076d5760008281526006602090815260408083206001600160a01b03851684529091529020805460ff191660011790556111373390565b6001600160a01b0316816001600160a01b0316837f2f8788117e7eff1d82e926ec794901d17c78024a50270940304540a733656f0d60405160405180910390a45050565b60007f8b73c3c69bb8fe3d512ecc4cf759cc79239f7b179b0ffacaa9a75d522b39400f60006040516111ad9190611ca2565b6040805191829003822060208301939093528101919091527fc89efdaa54c0f20c7adf612882df0950f5a951637e0307cdcb4c672f298b8bc660608201524660808201523060a082015260c00160405160208183030381529060405280519060200120905090565b61121f8282610ade565b1561076d5760008281526006602090815260408083206001600160a01b0385168085529252808320805460ff1916905551339285917ff6391f5c32d9c69d2a47ea670b442974b53935d1edc7fd64eb21e047a839171b9190a45050565b806002600082825461128e9190611b27565b90915550506001600160a01b038216600081815260036020908152604080832080548601905551848152600080516020611e4283398151915291015b60405180910390a35050565b6001600160a01b038216600090815260036020526040812080548392906112fe908490611b14565b90915550506002805482900390556040518181526000906001600160a01b03841690600080516020611e42833981519152906020016112ca565b60006110e1836001600160a01b038416611417565b60006110e1836001600160a01b038416611466565b6060816000018054806020026020016040519081016040528092919081815260200182805480156113b257602002820191906000526020600020905b81548152602001906001019080831161139e575b50505050509050919050565b6113c88282610ade565b61076d576113d581611559565b6113e083602061156b565b6040516020016113f1929190611d18565b60408051601f198184030181529082905262461bcd60e51b825261075a916004016117ce565b600081815260018301602052604081205461145e57508154600181810184556000848152602080822090930184905584548482528286019093526040902091909155610483565b506000610483565b6000818152600183016020526040812054801561154f57600061148a600183611b14565b855490915060009061149e90600190611b14565b90508181146115035760008660000182815481106114be576114be611d87565b90600052602060002001549050808760000184815481106114e1576114e1611d87565b6000918252602080832090910192909255918252600188019052604090208390555b855486908061151457611514611d9d565b600190038181906000526020600020016000905590558560010160008681526020019081526020016000206000905560019350505050610483565b6000915050610483565b60606104836001600160a01b03831660145b6060600061157a836002611db3565b611585906002611b27565b6001600160401b0381111561159c5761159c611b3a565b6040519080825280601f01601f1916602001820160405280156115c6576020820181803683370190505b509050600360fc1b816000815181106115e1576115e1611d87565b60200101906001600160f81b031916908160001a905350600f60fb1b8160018151811061161057611610611d87565b60200101906001600160f81b031916908160001a9053506000611634846002611db3565b61163f906001611b27565b90505b60018111156116b7576f181899199a1a9b1b9c1cb0b131b232b360811b85600f166010811061167357611673611d87565b1a60f81b82828151811061168957611689611d87565b60200101906001600160f81b031916908160001a90535060049490941c936116b081611dca565b9050611642565b5083156110e15760405162461bcd60e51b815260206004820181905260248201527f537472696e67733a20686578206c656e67746820696e73756666696369656e74604482015260640161075a565b50805461171290611ac4565b6000825580601f10611722575050565b601f0160209004906000526020600020908101906110f291905b80821115611750576000815560010161173c565b5090565b60006020828403121561176657600080fd5b81356001600160e01b0319811681146110e157600080fd5b60005b83811015611799578181015183820152602001611781565b50506000910152565b600081518084526117ba81602086016020860161177e565b601f01601f19169290920160200192915050565b6020815260006110e160208301846117a2565b80356001600160a01b03811681146117f857600080fd5b919050565b6000806040838503121561181057600080fd5b611819836117e1565b946020939093013593505050565b6020808252825182820181905260009190848201906040850190845b818110156118685783516001600160a01b031683529284019291840191600101611843565b50909695505050505050565b60008060006060848603121561188957600080fd5b611892846117e1565b92506118a0602085016117e1565b9150604084013590509250925092565b6000602082840312156118c257600080fd5b5035919050565b600080604083850312156118dc57600080fd5b823591506118ec602084016117e1565b90509250929050565b60006020828403121561190757600080fd5b6110e1826117e1565b80356001600160801b03811681146117f857600080fd5b6000806000806060858703121561193d57600080fd5b611946856117e1565b935060208501356001600160401b038082111561196257600080fd5b818701915087601f83011261197657600080fd5b81358181111561198557600080fd5b88602082850101111561199757600080fd5b6020830195508094505050506119af60408601611910565b905092959194509250565b600080604083850312156119cd57600080fd5b6119d6836117e1565b91506118ec60208401611910565b60208152600060018060801b03808451166020840152806020850151166040840152506040830151606080840152611a1f60808401826117a2565b949350505050565b600080600080600080600060e0888a031215611a4257600080fd5b611a4b886117e1565b9650611a59602089016117e1565b95506040880135945060608801359350608088013560ff81168114611a7d57600080fd5b9699959850939692959460a0840135945060c09093013592915050565b60008060408385031215611aad57600080fd5b611ab6836117e1565b91506118ec602084016117e1565b600181811c90821680611ad857607f821691505b602082108103611af857634e487b7160e01b600052602260045260246000fd5b50919050565b634e487b7160e01b600052601160045260246000fd5b8181038181111561048357610483611afe565b8082018082111561048357610483611afe565b634e487b7160e01b600052604160045260246000fd5b601f82111561069357600081815260208120601f850160051c81016020861015611b775750805b601f850160051c820191505b81811015611b9657828155600101611b83565b505050505050565b6001600160401b03831115611bb557611bb5611b3a565b611bc983611bc38354611ac4565b83611b50565b6000601f841160018114611bfd5760008515611be55750838201355b600019600387901b1c1916600186901b178355611c57565b600083815260209020601f19861690835b82811015611c2e5786850135825560209485019460019092019101611c0e565b5086821015611c4b5760001960f88860031b161c19848701351681555b505060018560011b0183555b5050505050565b8183823760009101908152919050565b6020808252601a9082015279119050d2531255105513d497d113d154d7d393d517d1561254d560321b604082015260600190565b6000808354611cb081611ac4565b60018281168015611cc85760018114611cdd57611d0c565b60ff1984168752821515830287019450611d0c565b8760005260208060002060005b85811015611d035781548a820152908401908201611cea565b50505082870194505b50929695505050505050565b76020b1b1b2b9b9a1b7b73a3937b61d1030b1b1b7bab73a1604d1b815260008351611d4a81601785016020880161177e565b7001034b99036b4b9b9b4b733903937b6329607d1b6017918401918201528351611d7b81602884016020880161177e565b01602801949350505050565b634e487b7160e01b600052603260045260246000fd5b634e487b7160e01b600052603160045260246000fd5b808202811582820484141761048357610483611afe565b600081611dd957611dd9611afe565b50600019019056fe5e20732f79076148980e17b6ce9f22756f85058fe2765420ed48a504bef5a8bcacb6de9209e4f34974cb165eef5738f0cf0b4ea9819ef30d30f0f7d81272ab82c7f115822aabac0cd6b9d21b08c0c63819451a58157aecad689d1b5674fad408ddf252ad1be2c89b69c2b068fc378daa952ba7f163c4a11628f55a4df523b3ef6e71edae12b1b97f4d1f60370fef10105fa2faae0126114a169c64845d6126c98c5be1e5ebec7d5bd14f71427d1e84f3dd0314c0f7b2291e5b200ac8c7c3b925a2646970667358221220cf8dc60b8ad2d2cc3e6bb2988bf236f2de22c844d584b993f308c81ab9a4f46964736f6c63430008150033",
    "linkReferences": {},
    "deployedLinkReferences": {}
}