{
    "_format": "hh-sol-artifact-1",
    "contractName": "LoanCore",
    "sourceName": "contracts/LoanCore.sol",
    "abi": [
        {
            "inputs": [
                {
                    "internalType": "address",
                    "name": "usdc",
                    "type": "address"
                },
                {
                    "internalType": "address",
                    "name": "gho",
                    "type": "address"
                },
                {
                    "internalType": "address",
                    "name": "owner_",
                    "type": "address"
                },
                {
                    "internalType": "address",
                    "name": "ccipRouter",
                    "type": "address"
                },
                {
                    "internalType": "uint64",
                    "name": "_destinationChainSelector",
                    "type": "uint64"
                }
            ],
            "stateMutability": "nonpayable",
            "type": "constructor"
        },
        {
            "inputs": [],
            "name": "AccessControlBadConfirmation",
            "type": "error"
        },
        {
            "inputs": [
                {
                    "internalType": "address",
                    "name": "account",
                    "type": "address"
                },
                {
                    "internalType": "bytes32",
                    "name": "neededRole",
                    "type": "bytes32"
                }
            ],
            "name": "AccessControlUnauthorizedAccount",
            "type": "error"
        },
        {
            "inputs": [
                {
                    "internalType": "address",
                    "name": "target",
                    "type": "address"
                }
            ],
            "name": "AddressEmptyCode",
            "type": "error"
        },
        {
            "inputs": [
                {
                    "internalType": "address",
                    "name": "account",
                    "type": "address"
                }
            ],
            "name": "AddressInsufficientBalance",
            "type": "error"
        },
        {
            "inputs": [],
            "name": "Collateral_In_Use",
            "type": "error"
        },
        {
            "inputs": [],
            "name": "EnforcedPause",
            "type": "error"
        },
        {
            "inputs": [],
            "name": "Exceeds_Balance",
            "type": "error"
        },
        {
            "inputs": [],
            "name": "Exceeds_Maximum_Borrowable",
            "type": "error"
        },
        {
            "inputs": [],
            "name": "ExpectedPause",
            "type": "error"
        },
        {
            "inputs": [],
            "name": "FailedInnerCall",
            "type": "error"
        },
        {
            "inputs": [],
            "name": "Invalid_State",
            "type": "error"
        },
        {
            "inputs": [],
            "name": "Not_Unhealthy",
            "type": "error"
        },
        {
            "inputs": [],
            "name": "Only_Whitelisted_Chain",
            "type": "error"
        },
        {
            "inputs": [],
            "name": "Only_Whitelisted_NFT",
            "type": "error"
        },
        {
            "inputs": [
                {
                    "internalType": "address",
                    "name": "owner",
                    "type": "address"
                }
            ],
            "name": "OwnableInvalidOwner",
            "type": "error"
        },
        {
            "inputs": [
                {
                    "internalType": "address",
                    "name": "account",
                    "type": "address"
                }
            ],
            "name": "OwnableUnauthorizedAccount",
            "type": "error"
        },
        {
            "inputs": [],
            "name": "ReentrancyGuardReentrantCall",
            "type": "error"
        },
        {
            "inputs": [
                {
                    "internalType": "address",
                    "name": "token",
                    "type": "address"
                }
            ],
            "name": "SafeERC20FailedOperation",
            "type": "error"
        },
        {
            "anonymous": false,
            "inputs": [
                {
                    "indexed": false,
                    "internalType": "uint256",
                    "name": "loanId",
                    "type": "uint256"
                }
            ],
            "name": "LoanClaimed",
            "type": "event"
        },
        {
            "anonymous": false,
            "inputs": [
                {
                    "indexed": false,
                    "internalType": "uint256",
                    "name": "loanId",
                    "type": "uint256"
                }
            ],
            "name": "LoanPayment",
            "type": "event"
        },
        {
            "anonymous": false,
            "inputs": [
                {
                    "indexed": false,
                    "internalType": "uint256",
                    "name": "loanId",
                    "type": "uint256"
                }
            ],
            "name": "LoanRepaid",
            "type": "event"
        },
        {
            "anonymous": false,
            "inputs": [
                {
                    "indexed": false,
                    "internalType": "uint256",
                    "name": "loanId",
                    "type": "uint256"
                },
                {
                    "indexed": false,
                    "internalType": "address",
                    "name": "lender",
                    "type": "address"
                },
                {
                    "indexed": false,
                    "internalType": "address",
                    "name": "borrower",
                    "type": "address"
                }
            ],
            "name": "LoanStarted",
            "type": "event"
        },
        {
            "anonymous": false,
            "inputs": [
                {
                    "indexed": false,
                    "internalType": "bytes32",
                    "name": "messageId",
                    "type": "bytes32"
                }
            ],
            "name": "MessageSent",
            "type": "event"
        },
        {
            "anonymous": false,
            "inputs": [
                {
                    "indexed": true,
                    "internalType": "address",
                    "name": "user",
                    "type": "address"
                },
                {
                    "indexed": false,
                    "internalType": "uint160",
                    "name": "nonce",
                    "type": "uint160"
                }
            ],
            "name": "NonceUsed",
            "type": "event"
        },
        {
            "anonymous": false,
            "inputs": [
                {
                    "indexed": true,
                    "internalType": "address",
                    "name": "previousOwner",
                    "type": "address"
                },
                {
                    "indexed": true,
                    "internalType": "address",
                    "name": "newOwner",
                    "type": "address"
                }
            ],
            "name": "OwnershipTransferred",
            "type": "event"
        },
        {
            "anonymous": false,
            "inputs": [
                {
                    "indexed": false,
                    "internalType": "address",
                    "name": "account",
                    "type": "address"
                }
            ],
            "name": "Paused",
            "type": "event"
        },
        {
            "anonymous": false,
            "inputs": [
                {
                    "indexed": true,
                    "internalType": "bytes32",
                    "name": "role",
                    "type": "bytes32"
                },
                {
                    "indexed": true,
                    "internalType": "bytes32",
                    "name": "previousAdminRole",
                    "type": "bytes32"
                },
                {
                    "indexed": true,
                    "internalType": "bytes32",
                    "name": "newAdminRole",
                    "type": "bytes32"
                }
            ],
            "name": "RoleAdminChanged",
            "type": "event"
        },
        {
            "anonymous": false,
            "inputs": [
                {
                    "indexed": true,
                    "internalType": "bytes32",
                    "name": "role",
                    "type": "bytes32"
                },
                {
                    "indexed": true,
                    "internalType": "address",
                    "name": "account",
                    "type": "address"
                },
                {
                    "indexed": true,
                    "internalType": "address",
                    "name": "sender",
                    "type": "address"
                }
            ],
            "name": "RoleGranted",
            "type": "event"
        },
        {
            "anonymous": false,
            "inputs": [
                {
                    "indexed": true,
                    "internalType": "bytes32",
                    "name": "role",
                    "type": "bytes32"
                },
                {
                    "indexed": true,
                    "internalType": "address",
                    "name": "account",
                    "type": "address"
                },
                {
                    "indexed": true,
                    "internalType": "address",
                    "name": "sender",
                    "type": "address"
                }
            ],
            "name": "RoleRevoked",
            "type": "event"
        },
        {
            "anonymous": false,
            "inputs": [
                {
                    "indexed": false,
                    "internalType": "address",
                    "name": "account",
                    "type": "address"
                }
            ],
            "name": "Unpaused",
            "type": "event"
        },
        {
            "anonymous": false,
            "inputs": [
                {
                    "indexed": true,
                    "internalType": "uint64",
                    "name": "destinationChain",
                    "type": "uint64"
                },
                {
                    "indexed": true,
                    "internalType": "bool",
                    "name": "whitelist",
                    "type": "bool"
                }
            ],
            "name": "WhitelistDestinationChain",
            "type": "event"
        },
        {
            "anonymous": false,
            "inputs": [
                {
                    "indexed": true,
                    "internalType": "address",
                    "name": "token",
                    "type": "address"
                },
                {
                    "indexed": true,
                    "internalType": "bool",
                    "name": "whitelist",
                    "type": "bool"
                }
            ],
            "name": "WhitelistNFT",
            "type": "event"
        },
        {
            "inputs": [],
            "name": "DEFAULT_ADMIN_ROLE",
            "outputs": [
                {
                    "internalType": "bytes32",
                    "name": "",
                    "type": "bytes32"
                }
            ],
            "stateMutability": "view",
            "type": "function"
        },
        {
            "inputs": [],
            "name": "GHO",
            "outputs": [
                {
                    "internalType": "contract IERC20",
                    "name": "",
                    "type": "address"
                }
            ],
            "stateMutability": "view",
            "type": "function"
        },
        {
            "inputs": [],
            "name": "USDC",
            "outputs": [
                {
                    "internalType": "contract IERC20",
                    "name": "",
                    "type": "address"
                }
            ],
            "stateMutability": "view",
            "type": "function"
        },
        {
            "inputs": [
                {
                    "internalType": "uint256",
                    "name": "amount",
                    "type": "uint256"
                }
            ],
            "name": "calculateCollateralValue",
            "outputs": [
                {
                    "internalType": "uint256",
                    "name": "",
                    "type": "uint256"
                }
            ],
            "stateMutability": "pure",
            "type": "function"
        },
        {
            "inputs": [
                {
                    "internalType": "uint256",
                    "name": "loanId",
                    "type": "uint256"
                }
            ],
            "name": "calculateInterest",
            "outputs": [
                {
                    "internalType": "uint256",
                    "name": "interestAmountDue",
                    "type": "uint256"
                }
            ],
            "stateMutability": "view",
            "type": "function"
        },
        {
            "inputs": [
                {
                    "internalType": "uint256",
                    "name": "loanId",
                    "type": "uint256"
                }
            ],
            "name": "claim",
            "outputs": [],
            "stateMutability": "nonpayable",
            "type": "function"
        },
        {
            "inputs": [
                {
                    "internalType": "address",
                    "name": "yieldToken",
                    "type": "address"
                },
                {
                    "internalType": "uint256",
                    "name": "amount",
                    "type": "uint256"
                }
            ],
            "name": "convertSharesToBaseTokens",
            "outputs": [
                {
                    "internalType": "uint256",
                    "name": "",
                    "type": "uint256"
                }
            ],
            "stateMutability": "view",
            "type": "function"
        },
        {
            "inputs": [],
            "name": "destinationGHO",
            "outputs": [
                {
                    "internalType": "address",
                    "name": "",
                    "type": "address"
                }
            ],
            "stateMutability": "view",
            "type": "function"
        },
        {
            "inputs": [],
            "name": "getChainId",
            "outputs": [
                {
                    "internalType": "uint64",
                    "name": "chainId",
                    "type": "uint64"
                }
            ],
            "stateMutability": "view",
            "type": "function"
        },
        {
            "inputs": [],
            "name": "getLatestPrice",
            "outputs": [
                {
                    "internalType": "int256",
                    "name": "",
                    "type": "int256"
                }
            ],
            "stateMutability": "view",
            "type": "function"
        },
        {
            "inputs": [
                {
                    "internalType": "bytes32",
                    "name": "role",
                    "type": "bytes32"
                }
            ],
            "name": "getRoleAdmin",
            "outputs": [
                {
                    "internalType": "bytes32",
                    "name": "",
                    "type": "bytes32"
                }
            ],
            "stateMutability": "view",
            "type": "function"
        },
        {
            "inputs": [
                {
                    "internalType": "bytes32",
                    "name": "role",
                    "type": "bytes32"
                },
                {
                    "internalType": "uint256",
                    "name": "index",
                    "type": "uint256"
                }
            ],
            "name": "getRoleMember",
            "outputs": [
                {
                    "internalType": "address",
                    "name": "",
                    "type": "address"
                }
            ],
            "stateMutability": "view",
            "type": "function"
        },
        {
            "inputs": [
                {
                    "internalType": "bytes32",
                    "name": "role",
                    "type": "bytes32"
                }
            ],
            "name": "getRoleMemberCount",
            "outputs": [
                {
                    "internalType": "uint256",
                    "name": "",
                    "type": "uint256"
                }
            ],
            "stateMutability": "view",
            "type": "function"
        },
        {
            "inputs": [
                {
                    "internalType": "bytes32",
                    "name": "role",
                    "type": "bytes32"
                },
                {
                    "internalType": "address",
                    "name": "account",
                    "type": "address"
                }
            ],
            "name": "grantRole",
            "outputs": [],
            "stateMutability": "nonpayable",
            "type": "function"
        },
        {
            "inputs": [
                {
                    "internalType": "bytes32",
                    "name": "role",
                    "type": "bytes32"
                },
                {
                    "internalType": "address",
                    "name": "account",
                    "type": "address"
                }
            ],
            "name": "hasRole",
            "outputs": [
                {
                    "internalType": "bool",
                    "name": "",
                    "type": "bool"
                }
            ],
            "stateMutability": "view",
            "type": "function"
        },
        {
            "inputs": [],
            "name": "interestRate",
            "outputs": [
                {
                    "internalType": "uint256",
                    "name": "",
                    "type": "uint256"
                }
            ],
            "stateMutability": "view",
            "type": "function"
        },
        {
            "inputs": [
                {
                    "internalType": "uint64",
                    "name": "destinationChain",
                    "type": "uint64"
                }
            ],
            "name": "isWhitelistedDestination",
            "outputs": [
                {
                    "internalType": "bool",
                    "name": "",
                    "type": "bool"
                }
            ],
            "stateMutability": "view",
            "type": "function"
        },
        {
            "inputs": [
                {
                    "internalType": "address",
                    "name": "token",
                    "type": "address"
                }
            ],
            "name": "isWhitelistedNFT",
            "outputs": [
                {
                    "internalType": "bool",
                    "name": "",
                    "type": "bool"
                }
            ],
            "stateMutability": "view",
            "type": "function"
        },
        {
            "inputs": [
                {
                    "internalType": "uint256",
                    "name": "",
                    "type": "uint256"
                }
            ],
            "name": "loans",
            "outputs": [
                {
                    "internalType": "enum LoanLibrary.LoanState",
                    "name": "state",
                    "type": "uint8"
                },
                {
                    "internalType": "uint64",
                    "name": "startDate",
                    "type": "uint64"
                },
                {
                    "internalType": "uint64",
                    "name": "lastAccrualTimestamp",
                    "type": "uint64"
                },
                {
                    "internalType": "uint256",
                    "name": "entryPrice",
                    "type": "uint256"
                },
                {
                    "internalType": "uint256",
                    "name": "balance",
                    "type": "uint256"
                },
                {
                    "internalType": "uint256",
                    "name": "interestAmountPaid",
                    "type": "uint256"
                },
                {
                    "internalType": "uint256",
                    "name": "allowance",
                    "type": "uint256"
                },
                {
                    "components": [
                        {
                            "internalType": "address",
                            "name": "collateralAddress",
                            "type": "address"
                        },
                        {
                            "internalType": "uint256",
                            "name": "collateralId",
                            "type": "uint256"
                        },
                        {
                            "internalType": "uint256",
                            "name": "principal",
                            "type": "uint256"
                        },
                        {
                            "internalType": "uint64",
                            "name": "destinationChain",
                            "type": "uint64"
                        },
                        {
                            "internalType": "enum LoanLibrary.Facilitator",
                            "name": "facilitator",
                            "type": "uint8"
                        }
                    ],
                    "internalType": "struct LoanLibrary.LoanTerms",
                    "name": "terms",
                    "type": "tuple"
                }
            ],
            "stateMutability": "view",
            "type": "function"
        },
        {
            "inputs": [],
            "name": "owner",
            "outputs": [
                {
                    "internalType": "address",
                    "name": "",
                    "type": "address"
                }
            ],
            "stateMutability": "view",
            "type": "function"
        },
        {
            "inputs": [],
            "name": "paused",
            "outputs": [
                {
                    "internalType": "bool",
                    "name": "",
                    "type": "bool"
                }
            ],
            "stateMutability": "view",
            "type": "function"
        },
        {
            "inputs": [],
            "name": "receiver",
            "outputs": [
                {
                    "internalType": "address",
                    "name": "",
                    "type": "address"
                }
            ],
            "stateMutability": "view",
            "type": "function"
        },
        {
            "inputs": [],
            "name": "renounceOwnership",
            "outputs": [],
            "stateMutability": "nonpayable",
            "type": "function"
        },
        {
            "inputs": [
                {
                    "internalType": "bytes32",
                    "name": "role",
                    "type": "bytes32"
                },
                {
                    "internalType": "address",
                    "name": "callerConfirmation",
                    "type": "address"
                }
            ],
            "name": "renounceRole",
            "outputs": [],
            "stateMutability": "nonpayable",
            "type": "function"
        },
        {
            "inputs": [
                {
                    "internalType": "uint256",
                    "name": "loanId",
                    "type": "uint256"
                },
                {
                    "internalType": "uint256",
                    "name": "amount",
                    "type": "uint256"
                }
            ],
            "name": "repayDebt",
            "outputs": [],
            "stateMutability": "nonpayable",
            "type": "function"
        },
        {
            "inputs": [
                {
                    "internalType": "bytes32",
                    "name": "role",
                    "type": "bytes32"
                },
                {
                    "internalType": "address",
                    "name": "account",
                    "type": "address"
                }
            ],
            "name": "revokeRole",
            "outputs": [],
            "stateMutability": "nonpayable",
            "type": "function"
        },
        {
            "inputs": [
                {
                    "internalType": "address",
                    "name": "borrowTo",
                    "type": "address"
                },
                {
                    "components": [
                        {
                            "internalType": "address",
                            "name": "collateralAddress",
                            "type": "address"
                        },
                        {
                            "internalType": "uint256",
                            "name": "collateralId",
                            "type": "uint256"
                        },
                        {
                            "internalType": "uint256",
                            "name": "principal",
                            "type": "uint256"
                        },
                        {
                            "internalType": "uint64",
                            "name": "destinationChain",
                            "type": "uint64"
                        },
                        {
                            "internalType": "enum LoanLibrary.Facilitator",
                            "name": "facilitator",
                            "type": "uint8"
                        }
                    ],
                    "internalType": "struct LoanLibrary.LoanTerms",
                    "name": "terms",
                    "type": "tuple"
                }
            ],
            "name": "startLoan",
            "outputs": [
                {
                    "internalType": "uint256",
                    "name": "loanId",
                    "type": "uint256"
                }
            ],
            "stateMutability": "nonpayable",
            "type": "function"
        },
        {
            "inputs": [
                {
                    "internalType": "address",
                    "name": "receiver",
                    "type": "address"
                },
                {
                    "internalType": "uint256",
                    "name": "amountOverCollateralized",
                    "type": "uint256"
                },
                {
                    "internalType": "address",
                    "name": "recipient",
                    "type": "address"
                }
            ],
            "name": "supplySavvyCCIP",
            "outputs": [],
            "stateMutability": "nonpayable",
            "type": "function"
        },
        {
            "inputs": [
                {
                    "internalType": "bytes4",
                    "name": "interfaceId",
                    "type": "bytes4"
                }
            ],
            "name": "supportsInterface",
            "outputs": [
                {
                    "internalType": "bool",
                    "name": "",
                    "type": "bool"
                }
            ],
            "stateMutability": "view",
            "type": "function"
        },
        {
            "inputs": [
                {
                    "internalType": "address",
                    "name": "newOwner",
                    "type": "address"
                }
            ],
            "name": "transferOwnership",
            "outputs": [],
            "stateMutability": "nonpayable",
            "type": "function"
        },
        {
            "inputs": [
                {
                    "internalType": "address",
                    "name": "",
                    "type": "address"
                },
                {
                    "internalType": "uint160",
                    "name": "",
                    "type": "uint160"
                }
            ],
            "name": "usedNonces",
            "outputs": [
                {
                    "internalType": "bool",
                    "name": "",
                    "type": "bool"
                }
            ],
            "stateMutability": "view",
            "type": "function"
        },
        {
            "inputs": [
                {
                    "internalType": "uint64",
                    "name": "destinationChain",
                    "type": "uint64"
                },
                {
                    "internalType": "bool",
                    "name": "whitelist",
                    "type": "bool"
                }
            ],
            "name": "whitelistDestinationChain",
            "outputs": [],
            "stateMutability": "nonpayable",
            "type": "function"
        },
        {
            "inputs": [
                {
                    "internalType": "address",
                    "name": "token",
                    "type": "address"
                },
                {
                    "internalType": "bool",
                    "name": "whitelist",
                    "type": "bool"
                }
            ],
            "name": "whitelistNFT",
            "outputs": [],
            "stateMutability": "nonpayable",
            "type": "function"
        },
        {
            "inputs": [
                {
                    "internalType": "address",
                    "name": "receiver",
                    "type": "address"
                },
                {
                    "internalType": "address",
                    "name": "recipient",
                    "type": "address"
                },
                {
                    "internalType": "uint256",
                    "name": "amountOverCollateralized",
                    "type": "uint256"
                }
            ],
            "name": "withdrawSavvyCCIP",
            "outputs": [],
            "stateMutability": "nonpayable",
            "type": "function"
        },
        {
            "stateMutability": "payable",
            "type": "receive"
        }
    ],
    "bytecode": "0x60c06040526103e8600c553480156200001757600080fd5b5060405162002c2138038062002c218339810160408190526200003a9162000164565b6001600160a01b038083166080526001600160401b03821660a0528390819081166200008057604051631e4fbdf760e01b81526000600482015260240160405180910390fd5b6200008b81620000f5565b505050466001600160401b031660009081526004602052604090208054600160ff1991821681179092556005805490911690556006555050600780546001600160a01b039384166001600160a01b03199182161790915560088054929093169116179055620001e4565b600280546001600160a01b038381166001600160a01b0319831681179093556040519116919082907f8be0079c531659141344cd1fd0a4f28419497f9722a3daafe3b4186f6b6457e090600090a35050565b80516001600160a01b03811681146200015f57600080fd5b919050565b600080600080600060a086880312156200017d57600080fd5b620001888662000147565b9450620001986020870162000147565b9350620001a86040870162000147565b9250620001b86060870162000147565b60808701519092506001600160401b0381168114620001d657600080fd5b809150509295509295909350565b60805160a0516129fb6200022660003960008181610c3001528181610cd101526112d7015260008181610bfb01528181610ca101526112aa01526129fb6000f3fe60806040526004361061018d5760003560e01c8063015cb0a51461019957806301ffc9a7146101bb5780630668445b146101f05780630f2163ea1461022b578063138b73381461025857806317a599371461029157806319cdf159146102b1578063248a9ca3146102d15780632d11342a146102ff5780632f2ff15d1461031f57806330403c601461033f5780633408e4701461037857806336568abe1461039c578063379607f5146103bc5780635c975abb146103dc578063715018a6146103f45780637357b0e5146104095780637c3a00fd146104295780637f6574941461043f57806389a30271146104625780638da5cb5b146104825780638e15f473146104975780639010d07c146104ac57806391d14854146104cc578063a217fddf146104ec578063a57475e014610501578063b6f1ab1114610521578063b8d008f314610541578063ca15c87314610561578063d547741f14610581578063e1ec3c68146105a1578063f2fde38b146105d5578063f5f2cd91146105f5578063f7260d3e1461061557600080fd5b3661019457005b600080fd5b3480156101a557600080fd5b506101b96101b43660046122f2565b610635565b005b3480156101c757600080fd5b506101db6101d6366004612314565b610af2565b60405190151581526020015b60405180910390f35b3480156101fc57600080fd5b506101db61020b366004612353565b600e60209081526000928352604080842090915290825290205460ff1681565b34801561023757600080fd5b50600a5461024b906001600160a01b031681565b6040516101e7919061238c565b34801561026457600080fd5b506101db6102733660046123a0565b6001600160a01b031660009081526003602052604090205460ff1690565b34801561029d57600080fd5b506101b96102ac3660046123bd565b610b1d565b3480156102bd57600080fd5b506101b96102cc36600461240c565b610d94565b3480156102dd57600080fd5b506102f16102ec36600461243a565b610df0565b6040519081526020016101e7565b34801561030b57600080fd5b506101b961031a36600461246f565b610e05565b34801561032b57600080fd5b506101b961033a36600461248b565b610e61565b34801561034b57600080fd5b506101db61035a3660046124b0565b6001600160401b031660009081526004602052604090205460ff1690565b34801561038457600080fd5b506040516001600160401b03461681526020016101e7565b3480156103a857600080fd5b506101b96103b736600461248b565b610e83565b3480156103c857600080fd5b506101b96103d736600461243a565b610ebb565b3480156103e857600080fd5b5060055460ff166101db565b34801561040057600080fd5b506101b96111b2565b34801561041557600080fd5b506101b96104243660046124cb565b6111c6565b34801561043557600080fd5b506102f1600c5481565b34801561044b57600080fd5b506102f161045a36600461250d565b600092915050565b34801561046e57600080fd5b5060075461024b906001600160a01b031681565b34801561048e57600080fd5b5061024b611301565b3480156104a357600080fd5b506102f1611310565b3480156104b857600080fd5b5061024b6104c73660046122f2565b611394565b3480156104d857600080fd5b506101db6104e736600461248b565b6113b3565b3480156104f857600080fd5b506102f1600081565b34801561050d57600080fd5b506102f161051c36600461243a565b6113dc565b34801561052d57600080fd5b506102f161053c366004612539565b61156f565b34801561054d57600080fd5b5060085461024b906001600160a01b031681565b34801561056d57600080fd5b506102f161057c36600461243a565b611a56565b34801561058d57600080fd5b506101b961059c36600461248b565b611a6d565b3480156105ad57600080fd5b506105c16105bc36600461243a565b611a89565b6040516101e7989796959493929190612590565b3480156105e157600080fd5b506101b96105f03660046123a0565b611b58565b34801561060157600080fd5b506102f161061036600461243a565b611b9c565b34801561062157600080fd5b5060095461024b906001600160a01b031681565b61063d611bb5565b6000828152600d6020526040808220815161010081019092528054829060ff16600381111561066e5761066e61257a565b600381111561067f5761067f61257a565b815281546001600160401b0361010082048116602080850191909152600160481b90920481166040808501919091526001808601546060808701919091526002870154608080880191909152600388015460a080890191909152600489015460c0890152845190810185526005890180546001600160a01b0316825260068a01549782019790975260078901549481019490945260088801549485169184019190915260e0909501949193929184019160ff600160401b909104169081111561074a5761074a61257a565b600181111561075b5761075b61257a565b9052509052506000848152600d602052604090209091506001825160038111156107875761078761257a565b146107a55760405163209ef8cd60e21b815260040160405180910390fd5b60006107b0856113dc565b905082608001518411156107d7576040516370c39ac560e11b815260040160405180910390fd5b8260800151840361096357815460ff1916600217825560e08301518051602091820151604051600093600f938593610813939192909101612634565b60408051808303601f1901815291815281516020928301208352908201929092528101600020805460ff1916921515929092179091558051610100810190915282548390829060ff16600381111561086d5761086d61257a565b600381111561087e5761087e61257a565b815281546001600160401b0361010082048116602080850191909152600160481b90920481166040808501919091526001808601546060808701919091526002870154608080880191909152600388015460a080890191909152600489015460c0890152845190810185526005890180546001600160a01b0316825260068a01549782019790975260078901549481019490945260088801549485169184019190915260e0909501949193929184019160ff600160401b90910416908111156109495761094961257a565b600181111561095a5761095a61257a565b90525090525092505b808260030160008282546109779190612663565b92505081905550838260020160008282546109929190612676565b90915550508154600160481b600160881b031916600160481b426001600160401b0316021782556109dc33306109c88488612663565b6008546001600160a01b0316929190611bdf565b60026000868152600d602052604090205460ff166003811115610a0157610a0161257a565b03610aae5760e08301518051602090910151604051632142170760e11b81526001600160a01b03909216916342842e0e91610a429130913391600401612689565b600060405180830381600087803b158015610a5c57600080fd5b505af1158015610a70573d6000803e3d6000fd5b505050507f9a7851747cd7ffb3fe0a32caf3da48b31f27cebe131267051640f8b72fc4718685604051610aa591815260200190565b60405180910390a15b6040518581527f55756edcf77bbfc971bef12ee8d65aa0aff64e901d2bea09c92f0f2a3103980e9060200160405180910390a1505050610aee6001600655565b5050565b60006001600160e01b03198216635a05180f60e01b1480610b175750610b1782611c39565b92915050565b60006040518060a0016040528085604051602001610b3b919061238c565b60405160208183030381529060405281526020018385604051602401610b629291906126ad565b60408051601f19818403018152919052602080820180516001600160e01b0316637fa56ccd60e01b179052908252016000604051908082528060200260200182016040528015610bcc57816020015b610bb96122db565b815260200190600190039081610bb15790505b508152600060208083018290526040805191820181528282529283015290516320487ded60e01b8152919250907f00000000000000000000000000000000000000000000000000000000000000006001600160a01b0316906320487ded90610c5a907f0000000000000000000000000000000000000000000000000000000000000000908690600401612714565b602060405180830381865afa158015610c77573d6000803e3d6000fd5b505050506040513d601f19601f82011682018060405250810190610c9b91906127ec565b905060007f00000000000000000000000000000000000000000000000000000000000000006001600160a01b03166396f4e9f9837f0000000000000000000000000000000000000000000000000000000000000000866040518463ffffffff1660e01b8152600401610d0e929190612714565b60206040518083038185885af1158015610d2c573d6000803e3d6000fd5b50505050506040513d601f19601f82011682018060405250810190610d5191906127ec565b90507f54791b38f3859327992a1ca0590ad3c0f08feba98d1a4f56ab0dca74d203392a81604051610d8491815260200190565b60405180910390a1505050505050565b610d9c611c6e565b6001600160a01b038216600081815260036020526040808220805460ff191685151590811790915590519092917fbc991f624df4b9035b553fad0e4d3c8c880437eded73fec9d581eedfcf77507f91a35050565b60009081526020819052604090206001015490565b610e0d611c6e565b6001600160401b038216600081815260046020526040808220805460ff191685151590811790915590519092917fb14b1d5d1730d3c58e8fa50fe45ff1c270bced413fadc75a9d09c504b34cc61b91a35050565b610e6a82610df0565b610e7381611ca0565b610e7d8383611caa565b50505050565b6001600160a01b0381163314610eac5760405163334bd91960e11b815260040160405180910390fd5b610eb68282611cdf565b505050565b610ec3611d0c565b610ecb611bb5565b6000818152600d6020526040808220815161010081019092528054829060ff166003811115610efc57610efc61257a565b6003811115610f0d57610f0d61257a565b815281546001600160401b0361010082048116602080850191909152600160481b90920481166040808501919091526001808601546060808701919091526002870154608080880191909152600388015460a080890191909152600489015460c0890152845190810185526005890180546001600160a01b0316825260068a01549782019790975260078901549481019490945260088801549485169184019190915260e0909501949193929184019160ff600160401b9091041690811115610fd857610fd861257a565b6001811115610fe957610fe961257a565b90525090525090506001815160038111156110065761100661257a565b146110245760405163209ef8cd60e21b815260040160405180910390fd5b600061102e611310565b9050600061103b82611b9c565b9050826080015181111561106257604051633e8c155160e01b815260040160405180910390fd5b6000848152600d60209081526040808320805460ff1916600317905560e08601518051908301519151600f93859361109d9392909101612634565b60405160208183030381529060405280519060200120815260200190815260200160002060006101000a81548160ff02191690831515021790555060006110e3856113dc565b90506110fa33308387608001516109c89190612663565b60e08401518051602090910151604051632142170760e11b81526001600160a01b03909216916342842e0e916111369130913391600401612689565b600060405180830381600087803b15801561115057600080fd5b505af1158015611164573d6000803e3d6000fd5b505050507fb15e438728b48d46c9a5505713e60ff50c80559f4523c8f99a246a2069a8684a8560405161119991815260200190565b60405180910390a1505050506111af6001600655565b50565b6111ba611c6e565b6111c46000611d30565b565b60006040518060a00160405280856040516020016111e4919061238c565b6040516020818303038152906040528152602001848460405160240161120b9291906126ad565b60408051601f19818403018152919052602080820180516001600160e01b0316637aa355ef60e11b179052908252016000604051908082528060200260200182016040528015610bcc57816020015b6112626122db565b81526020019060019003908161125a5750508152600060208083018290526040805191820181528282529283015290516320487ded60e01b8152919250906001600160a01b037f000000000000000000000000000000000000000000000000000000000000000016906320487ded90610c5a907f0000000000000000000000000000000000000000000000000000000000000000908690600401612714565b6002546001600160a01b031690565b600080735c13b249846540f81c093bc342b5d963a75181456001600160a01b031663feaf968c6040518163ffffffff1660e01b815260040160a060405180830381865afa158015611365573d6000803e3d6000fd5b505050506040513d601f19601f82011682018060405250810190611389919061281c565b509195945050505050565b60008281526001602052604081206113ac9083611d82565b9392505050565b6000918252602082815260408084206001600160a01b0393909316845291905290205460ff1690565b6000818152600d602052604080822081516101008101909252805483929190829060ff1660038111156114115761141161257a565b60038111156114225761142261257a565b815281546001600160401b0361010082048116602080850191909152600160481b90920481166040808501919091526001808601546060808701919091526002870154608080880191909152600388015460a080890191909152600489015460c0890152845190810185526005890180546001600160a01b0316825260068a01549782019790975260078901549481019490945260088801549485169184019190915260e0909501949193929184019160ff600160401b90910416908111156114ed576114ed61257a565b60018111156114fe576114fe61257a565b90525090525060808101519091501561156957600081604001516001600160401b03164261152c9190612676565b905061153e6127106301e1338061286c565b600c54828460800151611551919061286c565b61155b919061286c565b6115659190612883565b9250505b50919050565b6000611579611d0c565b61158660208301836123a0565b6001600160a01b03811660009081526003602052604090205460ff166115bf5760405163012e3e6d60e71b815260040160405180910390fd5b6115cf60808401606085016124b0565b6001600160401b03811660009081526004602052604090205460ff166116085760405163173969d560e31b815260040160405180910390fd5b611610611bb5565b600061161f60208601866123a0565b8560200135604051602001611635929190612634565b60408051601f1981840301815291815281516020928301206000818152600f90935291205490915060ff161561167e57604051630d99458d60e41b815260040160405180910390fd5b6000611688611310565b9050600061169582611b9c565b905080876040013511156116bc57604051631f16bbaf60e11b815260040160405180910390fd5b6040870135156116e0576000838152600f60205260409020805460ff191660011790555b6116ed60208801886123a0565b6001600160a01b03166323b872dd33308a602001356040518463ffffffff1660e01b815260040161172093929190612689565b600060405180830381600087803b15801561173a57600080fd5b505af115801561174e573d6000803e3d6000fd5b5050600b8054600180820190925560408051610100810182529283526001600160401b0342166020840181905283820152606083018790528b013560808301819052600060a084015290995090925060c0830191506117ad9084612676565b81526020016117c1368a90038a018a6128b4565b90526000878152600d6020526040902081518154829060ff191660018360038111156117ef576117ef61257a565b02179055506020828101518254604080860151610100600160881b03199092166101006001600160401b0394851602600160481b600160881b03191617600160481b92841692909202919091178455606080860151600180870191909155608080880151600288015560a0880151600388015560c0880151600488015560e088015180516005890180546001600160a01b0319166001600160a01b03909216919091178155968101516006890155938401516007880155918301516008870180546001600160401b03198116929096169182178155928401519395946001600160481b0319161790600160401b9084908111156118ee576118ee61257a565b02179055506000935061190092505050565b61191060a0890160808a01612945565b60018111156119215761192161257a565b146119e1576007546040805163095ea7b360e01b81526001600160a01b039092169163095ea7b39161196f91736ae43d3271ff6888e7fc43fd7321a503ff738951918c013590600401612634565b6020604051808303816000875af115801561198e573d6000803e3d6000fd5b505050506040513d601f19601f820116820180604052508101906119b29190612960565b506007546119ca906001600160a01b03168230611d8e565b6008546119e1906001600160a01b03168230611e17565b604087013515611a0657600854611a06906001600160a01b03168960408a0135611e74565b6000611a128284612676565b90508760400135821115611a295760408801358203015b600954611a40906001600160a01b031682336111c6565b50505050611a4e6001600655565b505092915050565b6000818152600160205260408120610b1790611e9a565b611a7682610df0565b611a7f81611ca0565b610e7d8383611cdf565b600d602090815260009182526040918290208054600180830154600284015460038501546004860154885160a081018a526005880180546001600160a01b0316825260068901549982019990995260078801549981019990995260088701546001600160401b0381811660608c015260ff8089169b6101008a0483169b600160481b909a0490921699969895979496939593949193926080850192600160401b90910490911690811115611b3f57611b3f61257a565b6001811115611b5057611b5061257a565b905250905088565b611b60611c6e565b6001600160a01b038116611b93576000604051631e4fbdf760e01b8152600401611b8a919061238c565b60405180910390fd5b6111af81611d30565b60006064611bab83604661286c565b610b179190612883565b600260065403611bd857604051633ee5aeb560e01b815260040160405180910390fd5b6002600655565b610e7d84856001600160a01b03166323b872dd868686604051602401611c0793929190612689565b604051602081830303815290604052915060e01b6020820180516001600160e01b038381831617835250505050611ea4565b60006001600160e01b03198216637965db0b60e01b1480610b1757506301ffc9a760e01b6001600160e01b0319831614610b17565b33611c77611301565b6001600160a01b0316146111c4573360405163118cdaa760e01b8152600401611b8a919061238c565b6111af8133611efe565b600080611cb78484611f29565b905080156113ac576000848152600160205260409020611cd79084611fbb565b509392505050565b600080611cec8484611fd0565b905080156113ac576000848152600160205260409020611cd7908461203b565b60055460ff16156111c45760405163d93c066560e01b815260040160405180910390fd5b600280546001600160a01b038381166001600160a01b0319831681179093556040519116919082907f8be0079c531659141344cd1fd0a4f28419497f9722a3daafe3b4186f6b6457e090600090a35050565b60006113ac8383612050565b60405163617ba03760e01b81526001600160a01b038085166004830152602482018490528216604482015260006064820152736ae43d3271ff6888e7fc43fd7321a503ff7389519063617ba037906084015b600060405180830381600087803b158015611dfa57600080fd5b505af1158015611e0e573d6000803e3d6000fd5b50505050505050565b60405163a415bcad60e01b81526001600160a01b03808516600483015260248201849052600160448301526000606483015282166084820152736ae43d3271ff6888e7fc43fd7321a503ff7389519063a415bcad9060a401611de0565b610eb683846001600160a01b031663a9059cbb8585604051602401611c07929190612634565b6000610b17825490565b6000611eb96001600160a01b0384168361207a565b90508051600014158015611ede575080806020019051810190611edc9190612960565b155b15610eb65782604051635274afe760e01b8152600401611b8a919061238c565b611f0882826113b3565b610aee57808260405163e2517d3f60e01b8152600401611b8a929190612634565b6000611f3583836113b3565b611fb3576000838152602081815260408083206001600160a01b03861684529091529020805460ff19166001179055611f6b3390565b6001600160a01b0316826001600160a01b0316847f2f8788117e7eff1d82e926ec794901d17c78024a50270940304540a733656f0d60405160405180910390a4506001610b17565b506000610b17565b60006113ac836001600160a01b038416612088565b6000611fdc83836113b3565b15611fb3576000838152602081815260408083206001600160a01b0386168085529252808320805460ff1916905551339286917ff6391f5c32d9c69d2a47ea670b442974b53935d1edc7fd64eb21e047a839171b9190a4506001610b17565b60006113ac836001600160a01b0384166120cf565b60008260000182815481106120675761206761297d565b9060005260206000200154905092915050565b60606113ac838360006121c2565b6000818152600183016020526040812054611fb357508154600181810184556000848152602080822090930184905584548482528286019093526040902091909155610b17565b600081815260018301602052604081205480156121b85760006120f3600183612676565b855490915060009061210790600190612676565b905080821461216c5760008660000182815481106121275761212761297d565b906000526020600020015490508087600001848154811061214a5761214a61297d565b6000918252602080832090910192909255918252600188019052604090208390555b855486908061217d5761217d612993565b600190038181906000526020600020016000905590558560010160008681526020019081526020016000206000905560019350505050610b17565b6000915050610b17565b6060814710156121e7573060405163cd78605960e01b8152600401611b8a919061238c565b600080856001600160a01b0316848660405161220391906129a9565b60006040518083038185875af1925050503d8060008114612240576040519150601f19603f3d011682016040523d82523d6000602084013e612245565b606091505b509150915061225586838361225f565b9695505050505050565b6060826122745761226f826122b2565b6113ac565b815115801561228b57506001600160a01b0384163b155b156122ab5783604051639996b31560e01b8152600401611b8a919061238c565b50806113ac565b8051156122c25780518082602001fd5b604051630a12f52160e11b815260040160405180910390fd5b604080518082019091526000808252602082015290565b6000806040838503121561230557600080fd5b50508035926020909101359150565b60006020828403121561232657600080fd5b81356001600160e01b0319811681146113ac57600080fd5b6001600160a01b03811681146111af57600080fd5b6000806040838503121561236657600080fd5b82356123718161233e565b915060208301356123818161233e565b809150509250929050565b6001600160a01b0391909116815260200190565b6000602082840312156123b257600080fd5b81356113ac8161233e565b6000806000606084860312156123d257600080fd5b83356123dd8161233e565b925060208401356123ed8161233e565b929592945050506040919091013590565b80151581146111af57600080fd5b6000806040838503121561241f57600080fd5b823561242a8161233e565b91506020830135612381816123fe565b60006020828403121561244c57600080fd5b5035919050565b80356001600160401b038116811461246a57600080fd5b919050565b6000806040838503121561248257600080fd5b61242a83612453565b6000806040838503121561249e57600080fd5b8235915060208301356123818161233e565b6000602082840312156124c257600080fd5b6113ac82612453565b6000806000606084860312156124e057600080fd5b83356124eb8161233e565b92506020840135915060408401356125028161233e565b809150509250925092565b6000806040838503121561252057600080fd5b823561252b8161233e565b946020939093013593505050565b60008082840360c081121561254d57600080fd5b83356125588161233e565b925060a0601f198201121561256c57600080fd5b506020830190509250929050565b634e487b7160e01b600052602160045260246000fd5b610180810160048a106125a5576125a561257a565b89825260018060401b03808a16602084015280891660408401528760608401528660808401528560a08401528460c084015260018060a01b0384511660e084015260208401516101008401526040840151610120840152806060850151166101408401525060808301516002811061261f5761261f61257a565b80610160840152509998505050505050505050565b6001600160a01b03929092168252602082015260400190565b634e487b7160e01b600052601160045260246000fd5b80820180821115610b1757610b1761264d565b81810381811115610b1757610b1761264d565b6001600160a01b039384168152919092166020820152604081019190915260600190565b9182526001600160a01b0316602082015260400190565b60005b838110156126df5781810151838201526020016126c7565b50506000910152565b600081518084526127008160208601602086016126c4565b601f01601f19169290920160200192915050565b6000604060018060401b038516835260208181850152845160a08386015261273f60e08601826126e8565b905081860151603f198087840301606088015261275c83836126e8565b88860151888203830160808a01528051808352908601945060009350908501905b808410156127af57845180516001600160a01b031683528601518683015293850193600193909301929086019061277d565b5060608901516001600160a01b031660a08901526080890151888203830160c08a015295506127de81876126e8565b9a9950505050505050505050565b6000602082840312156127fe57600080fd5b5051919050565b80516001600160501b038116811461246a57600080fd5b600080600080600060a0868803121561283457600080fd5b61283d86612805565b945060208601519350604086015192506060860151915061286060808701612805565b90509295509295909350565b8082028115828204841417610b1757610b1761264d565b6000826128a057634e487b7160e01b600052601260045260246000fd5b500490565b80356002811061246a57600080fd5b600060a082840312156128c657600080fd5b60405160a081016001600160401b03811182821017156128f657634e487b7160e01b600052604160045260246000fd5b60405282356129048161233e565b80825250602083013560208201526040830135604082015261292860608401612453565b6060820152612939608084016128a5565b60808201529392505050565b60006020828403121561295757600080fd5b6113ac826128a5565b60006020828403121561297257600080fd5b81516113ac816123fe565b634e487b7160e01b600052603260045260246000fd5b634e487b7160e01b600052603160045260246000fd5b600082516129bb8184602087016126c4565b919091019291505056fea264697066735822122057f8db615a33dbf79616ce284aaa0d61efa7103db9ec1c1cd38700b4bf377bb764736f6c63430008150033",
    "linkReferences": {},
    "deployedLinkReferences": {}
}