{
    "_format": "hh-sol-artifact-1",
    "contractName": "MockERC721",
    "sourceName": "contracts/mock/MockNFT.sol",
    "abi": [
        {
            "inputs": [
                {
                    "internalType": "string",
                    "name": "name",
                    "type": "string"
                },
                {
                    "internalType": "string",
                    "name": "symbol",
                    "type": "string"
                },
                {
                    "internalType": "address",
                    "name": "owner_",
                    "type": "address"
                }
            ],
            "stateMutability": "nonpayable",
            "type": "constructor"
        },
        {
            "inputs": [],
            "name": "ERC721EnumerableForbiddenBatchMint",
            "type": "error"
        },
        {
            "inputs": [
                {
                    "internalType": "address",
                    "name": "sender",
                    "type": "address"
                },
                {
                    "internalType": "uint256",
                    "name": "tokenId",
                    "type": "uint256"
                },
                {
                    "internalType": "address",
                    "name": "owner",
                    "type": "address"
                }
            ],
            "name": "ERC721IncorrectOwner",
            "type": "error"
        },
        {
            "inputs": [
                {
                    "internalType": "address",
                    "name": "operator",
                    "type": "address"
                },
                {
                    "internalType": "uint256",
                    "name": "tokenId",
                    "type": "uint256"
                }
            ],
            "name": "ERC721InsufficientApproval",
            "type": "error"
        },
        {
            "inputs": [
                {
                    "internalType": "address",
                    "name": "approver",
                    "type": "address"
                }
            ],
            "name": "ERC721InvalidApprover",
            "type": "error"
        },
        {
            "inputs": [
                {
                    "internalType": "address",
                    "name": "operator",
                    "type": "address"
                }
            ],
            "name": "ERC721InvalidOperator",
            "type": "error"
        },
        {
            "inputs": [
                {
                    "internalType": "address",
                    "name": "owner",
                    "type": "address"
                }
            ],
            "name": "ERC721InvalidOwner",
            "type": "error"
        },
        {
            "inputs": [
                {
                    "internalType": "address",
                    "name": "receiver",
                    "type": "address"
                }
            ],
            "name": "ERC721InvalidReceiver",
            "type": "error"
        },
        {
            "inputs": [
                {
                    "internalType": "address",
                    "name": "sender",
                    "type": "address"
                }
            ],
            "name": "ERC721InvalidSender",
            "type": "error"
        },
        {
            "inputs": [
                {
                    "internalType": "uint256",
                    "name": "tokenId",
                    "type": "uint256"
                }
            ],
            "name": "ERC721NonexistentToken",
            "type": "error"
        },
        {
            "inputs": [
                {
                    "internalType": "address",
                    "name": "owner",
                    "type": "address"
                },
                {
                    "internalType": "uint256",
                    "name": "index",
                    "type": "uint256"
                }
            ],
            "name": "ERC721OutOfBoundsIndex",
            "type": "error"
        },
        {
            "inputs": [
                {
                    "internalType": "address",
                    "name": "owner",
                    "type": "address"
                }
            ],
            "name": "OwnableInvalidOwner",
            "type": "error"
        },
        {
            "inputs": [
                {
                    "internalType": "address",
                    "name": "account",
                    "type": "address"
                }
            ],
            "name": "OwnableUnauthorizedAccount",
            "type": "error"
        },
        {
            "anonymous": false,
            "inputs": [
                {
                    "indexed": true,
                    "internalType": "address",
                    "name": "owner",
                    "type": "address"
                },
                {
                    "indexed": true,
                    "internalType": "address",
                    "name": "approved",
                    "type": "address"
                },
                {
                    "indexed": true,
                    "internalType": "uint256",
                    "name": "tokenId",
                    "type": "uint256"
                }
            ],
            "name": "Approval",
            "type": "event"
        },
        {
            "anonymous": false,
            "inputs": [
                {
                    "indexed": true,
                    "internalType": "address",
                    "name": "owner",
                    "type": "address"
                },
                {
                    "indexed": true,
                    "internalType": "address",
                    "name": "operator",
                    "type": "address"
                },
                {
                    "indexed": false,
                    "internalType": "bool",
                    "name": "approved",
                    "type": "bool"
                }
            ],
            "name": "ApprovalForAll",
            "type": "event"
        },
        {
            "anonymous": false,
            "inputs": [
                {
                    "indexed": true,
                    "internalType": "address",
                    "name": "previousOwner",
                    "type": "address"
                },
                {
                    "indexed": true,
                    "internalType": "address",
                    "name": "newOwner",
                    "type": "address"
                }
            ],
            "name": "OwnershipTransferred",
            "type": "event"
        },
        {
            "anonymous": false,
            "inputs": [
                {
                    "indexed": true,
                    "internalType": "address",
                    "name": "from",
                    "type": "address"
                },
                {
                    "indexed": true,
                    "internalType": "address",
                    "name": "to",
                    "type": "address"
                },
                {
                    "indexed": true,
                    "internalType": "uint256",
                    "name": "tokenId",
                    "type": "uint256"
                }
            ],
            "name": "Transfer",
            "type": "event"
        },
        {
            "inputs": [
                {
                    "internalType": "address",
                    "name": "to",
                    "type": "address"
                },
                {
                    "internalType": "uint256",
                    "name": "tokenId",
                    "type": "uint256"
                }
            ],
            "name": "approve",
            "outputs": [],
            "stateMutability": "nonpayable",
            "type": "function"
        },
        {
            "inputs": [
                {
                    "internalType": "address",
                    "name": "owner",
                    "type": "address"
                }
            ],
            "name": "balanceOf",
            "outputs": [
                {
                    "internalType": "uint256",
                    "name": "",
                    "type": "uint256"
                }
            ],
            "stateMutability": "view",
            "type": "function"
        },
        {
            "inputs": [
                {
                    "internalType": "uint256",
                    "name": "tokenId",
                    "type": "uint256"
                }
            ],
            "name": "getApproved",
            "outputs": [
                {
                    "internalType": "address",
                    "name": "",
                    "type": "address"
                }
            ],
            "stateMutability": "view",
            "type": "function"
        },
        {
            "inputs": [
                {
                    "internalType": "address",
                    "name": "owner",
                    "type": "address"
                },
                {
                    "internalType": "address",
                    "name": "operator",
                    "type": "address"
                }
            ],
            "name": "isApprovedForAll",
            "outputs": [
                {
                    "internalType": "bool",
                    "name": "",
                    "type": "bool"
                }
            ],
            "stateMutability": "view",
            "type": "function"
        },
        {
            "inputs": [
                {
                    "internalType": "address",
                    "name": "to",
                    "type": "address"
                },
                {
                    "internalType": "uint256",
                    "name": "tokenId",
                    "type": "uint256"
                }
            ],
            "name": "mint",
            "outputs": [],
            "stateMutability": "nonpayable",
            "type": "function"
        },
        {
            "inputs": [],
            "name": "name",
            "outputs": [
                {
                    "internalType": "string",
                    "name": "",
                    "type": "string"
                }
            ],
            "stateMutability": "view",
            "type": "function"
        },
        {
            "inputs": [],
            "name": "owner",
            "outputs": [
                {
                    "internalType": "address",
                    "name": "",
                    "type": "address"
                }
            ],
            "stateMutability": "view",
            "type": "function"
        },
        {
            "inputs": [
                {
                    "internalType": "uint256",
                    "name": "tokenId",
                    "type": "uint256"
                }
            ],
            "name": "ownerOf",
            "outputs": [
                {
                    "internalType": "address",
                    "name": "",
                    "type": "address"
                }
            ],
            "stateMutability": "view",
            "type": "function"
        },
        {
            "inputs": [],
            "name": "renounceOwnership",
            "outputs": [],
            "stateMutability": "nonpayable",
            "type": "function"
        },
        {
            "inputs": [
                {
                    "internalType": "address",
                    "name": "from",
                    "type": "address"
                },
                {
                    "internalType": "address",
                    "name": "to",
                    "type": "address"
                },
                {
                    "internalType": "uint256",
                    "name": "tokenId",
                    "type": "uint256"
                }
            ],
            "name": "safeTransferFrom",
            "outputs": [],
            "stateMutability": "nonpayable",
            "type": "function"
        },
        {
            "inputs": [
                {
                    "internalType": "address",
                    "name": "from",
                    "type": "address"
                },
                {
                    "internalType": "address",
                    "name": "to",
                    "type": "address"
                },
                {
                    "internalType": "uint256",
                    "name": "tokenId",
                    "type": "uint256"
                },
                {
                    "internalType": "bytes",
                    "name": "data",
                    "type": "bytes"
                }
            ],
            "name": "safeTransferFrom",
            "outputs": [],
            "stateMutability": "nonpayable",
            "type": "function"
        },
        {
            "inputs": [
                {
                    "internalType": "address",
                    "name": "operator",
                    "type": "address"
                },
                {
                    "internalType": "bool",
                    "name": "approved",
                    "type": "bool"
                }
            ],
            "name": "setApprovalForAll",
            "outputs": [],
            "stateMutability": "nonpayable",
            "type": "function"
        },
        {
            "inputs": [
                {
                    "internalType": "bytes4",
                    "name": "interfaceId",
                    "type": "bytes4"
                }
            ],
            "name": "supportsInterface",
            "outputs": [
                {
                    "internalType": "bool",
                    "name": "",
                    "type": "bool"
                }
            ],
            "stateMutability": "view",
            "type": "function"
        },
        {
            "inputs": [],
            "name": "symbol",
            "outputs": [
                {
                    "internalType": "string",
                    "name": "",
                    "type": "string"
                }
            ],
            "stateMutability": "view",
            "type": "function"
        },
        {
            "inputs": [
                {
                    "internalType": "uint256",
                    "name": "index",
                    "type": "uint256"
                }
            ],
            "name": "tokenByIndex",
            "outputs": [
                {
                    "internalType": "uint256",
                    "name": "",
                    "type": "uint256"
                }
            ],
            "stateMutability": "view",
            "type": "function"
        },
        {
            "inputs": [
                {
                    "internalType": "address",
                    "name": "owner",
                    "type": "address"
                },
                {
                    "internalType": "uint256",
                    "name": "index",
                    "type": "uint256"
                }
            ],
            "name": "tokenOfOwnerByIndex",
            "outputs": [
                {
                    "internalType": "uint256",
                    "name": "",
                    "type": "uint256"
                }
            ],
            "stateMutability": "view",
            "type": "function"
        },
        {
            "inputs": [
                {
                    "internalType": "uint256",
                    "name": "tokenId",
                    "type": "uint256"
                }
            ],
            "name": "tokenURI",
            "outputs": [
                {
                    "internalType": "string",
                    "name": "",
                    "type": "string"
                }
            ],
            "stateMutability": "view",
            "type": "function"
        },
        {
            "inputs": [],
            "name": "totalSupply",
            "outputs": [
                {
                    "internalType": "uint256",
                    "name": "",
                    "type": "uint256"
                }
            ],
            "stateMutability": "view",
            "type": "function"
        },
        {
            "inputs": [
                {
                    "internalType": "address",
                    "name": "from",
                    "type": "address"
                },
                {
                    "internalType": "address",
                    "name": "to",
                    "type": "address"
                },
                {
                    "internalType": "uint256",
                    "name": "tokenId",
                    "type": "uint256"
                }
            ],
            "name": "transferFrom",
            "outputs": [],
            "stateMutability": "nonpayable",
            "type": "function"
        },
        {
            "inputs": [
                {
                    "internalType": "address",
                    "name": "newOwner",
                    "type": "address"
                }
            ],
            "name": "transferOwnership",
            "outputs": [],
            "stateMutability": "nonpayable",
            "type": "function"
        }
    ],
    "bytecode": "0x60806040523480156200001157600080fd5b506040516200182f3803806200182f8339810160408190526200003491620001b2565b8083836000620000458382620002ce565b506001620000548282620002ce565b5050506001600160a01b0381166200008657604051631e4fbdf760e01b81526000600482015260240160405180910390fd5b62000091816200009b565b505050506200039a565b600a80546001600160a01b038381166001600160a01b0319831681179093556040519116919082907f8be0079c531659141344cd1fd0a4f28419497f9722a3daafe3b4186f6b6457e090600090a35050565b634e487b7160e01b600052604160045260246000fd5b600082601f8301126200011557600080fd5b81516001600160401b0380821115620001325762000132620000ed565b604051601f8301601f19908116603f011681019082821181831017156200015d576200015d620000ed565b816040528381526020925086838588010111156200017a57600080fd5b600091505b838210156200019e57858201830151818301840152908201906200017f565b600093810190920192909252949350505050565b600080600060608486031215620001c857600080fd5b83516001600160401b0380821115620001e057600080fd5b620001ee8783880162000103565b945060208601519150808211156200020557600080fd5b50620002148682870162000103565b604086015190935090506001600160a01b03811681146200023457600080fd5b809150509250925092565b600181811c908216806200025457607f821691505b6020821081036200027557634e487b7160e01b600052602260045260246000fd5b50919050565b601f821115620002c957600081815260208120601f850160051c81016020861015620002a45750805b601f850160051c820191505b81811015620002c557828155600101620002b0565b5050505b505050565b81516001600160401b03811115620002ea57620002ea620000ed565b6200030281620002fb84546200023f565b846200027b565b602080601f8311600181146200033a5760008415620003215750858301515b600019600386901b1c1916600185901b178555620002c5565b600085815260208120601f198616915b828110156200036b578886015182559484019460019091019084016200034a565b50858210156200038a5787850151600019600388901b60f8161c191681555b5050505050600190811b01905550565b61148580620003aa6000396000f3fe608060405234801561001057600080fd5b50600436106100fc5760003560e01c806301ffc9a71461010157806306fdde0314610129578063081812fc1461013e578063095ea7b31461015e57806318160ddd1461017357806323b872dd146101855780632f745c591461019857806340c10f19146101ab57806342842e0e146101be5780634f6ccce7146101d15780636352211e146101e457806370a08231146101f7578063715018a61461020a5780638da5cb5b1461021257806395d89b411461021a578063a22cb46514610222578063b88d4fde14610235578063c87b56dd14610248578063e985e9c51461025b578063f2fde38b1461026e575b600080fd5b61011461010f36600461107c565b610281565b60405190151581526020015b60405180910390f35b6101316102ac565b60405161012091906110e9565b61015161014c3660046110fc565b61033e565b6040516101209190611115565b61017161016c366004611145565b610353565b005b6008545b604051908152602001610120565b61017161019336600461116f565b610362565b6101776101a6366004611145565b6103f6565b6101716101b9366004611145565b61044d565b6101716101cc36600461116f565b61045f565b6101776101df3660046110fc565b61047f565b6101516101f23660046110fc565b6104d3565b6101776102053660046111ab565b6104de565b610171610526565b61015161053a565b610131610549565b6101716102303660046111c6565b610558565b610171610243366004611218565b610563565b6101316102563660046110fc565b61057a565b6101146102693660046112f3565b6105ef565b61017161027c3660046111ab565b61061d565b60006001600160e01b0319821663780e9d6360e01b14806102a657506102a68261065b565b92915050565b6060600080546102bb90611326565b80601f01602080910402602001604051908101604052809291908181526020018280546102e790611326565b80156103345780601f1061030957610100808354040283529160200191610334565b820191906000526020600020905b81548152906001019060200180831161031757829003601f168201915b5050505050905090565b6000610349826106ab565b506102a6826106e3565b61035e8282336106fe565b5050565b6001600160a01b038216610395576000604051633250574960e11b815260040161038c9190611115565b60405180910390fd5b60006103a283833361070b565b9050836001600160a01b0316816001600160a01b0316146103f0576040516364283d7b60e01b81526001600160a01b038086166004830152602482018490528216604482015260640161038c565b50505050565b6000610401836104de565b821061042457828260405163295f44f760e21b815260040161038c929190611360565b506001600160a01b03919091166000908152600660209081526040808320938352929052205490565b6104556107e0565b61035e8282610812565b61047a83838360405180602001604052806000815250610563565b505050565b600061048a60085490565b82106104ae5760008260405163295f44f760e21b815260040161038c929190611360565b600882815481106104c1576104c1611379565b90600052602060002001549050919050565b60006102a6826106ab565b60006001600160a01b03821661050a5760006040516322718ad960e21b815260040161038c9190611115565b506001600160a01b031660009081526003602052604090205490565b61052e6107e0565b610538600061082c565b565b600a546001600160a01b031690565b6060600180546102bb90611326565b61035e33838361087e565b61056e848484610362565b6103f084848484610914565b6060610585826106ab565b50600061059d60408051602081019091526000815290565b905060008151116105bd57604051806020016040528060008152506105e8565b806105c784610a2b565b6040516020016105d892919061138f565b6040516020818303038152906040525b9392505050565b6001600160a01b03918216600090815260056020908152604080832093909416825291909152205460ff1690565b6106256107e0565b6001600160a01b03811661064f576000604051631e4fbdf760e01b815260040161038c9190611115565b6106588161082c565b50565b60006001600160e01b031982166380ac58cd60e01b148061068c57506001600160e01b03198216635b5e139f60e01b145b806102a657506301ffc9a760e01b6001600160e01b03198316146102a6565b6000806106b783610abd565b90506001600160a01b0381166102a657604051637e27328960e01b81526004810184905260240161038c565b6000908152600460205260409020546001600160a01b031690565b61047a8383836001610ad8565b600080610719858585610bd5565b90506001600160a01b0381166107765761077184600880546000838152600960205260408120829055600182018355919091527ff3f7a9fe364faab93b216da50a3214154f22a0a2b415b23a84c8169e8b636ee30155565b610799565b846001600160a01b0316816001600160a01b031614610799576107998185610cc9565b6001600160a01b0385166107b5576107b084610d5a565b6107d8565b846001600160a01b0316816001600160a01b0316146107d8576107d88585610e09565b949350505050565b336107e961053a565b6001600160a01b031614610538573360405163118cdaa760e01b815260040161038c9190611115565b61035e828260405180602001604052806000815250610e59565b600a80546001600160a01b038381166001600160a01b0319831681179093556040519116919082907f8be0079c531659141344cd1fd0a4f28419497f9722a3daafe3b4186f6b6457e090600090a35050565b6001600160a01b0382166108a75781604051630b61174360e31b815260040161038c9190611115565b6001600160a01b03838116600081815260056020908152604080832094871680845294825291829020805460ff191686151590811790915591519182527f17307eab39ab6107e8899845ad3d59bd9653f200f220920489ca2b5937696c31910160405180910390a3505050565b6001600160a01b0383163b156103f057604051630a85bd0160e11b81526001600160a01b0384169063150b7a02906109569033908890879087906004016113be565b6020604051808303816000875af1925050508015610991575060408051601f3d908101601f1916820190925261098e918101906113fb565b60015b6109f1573d8080156109bf576040519150601f19603f3d011682016040523d82523d6000602084013e6109c4565b606091505b5080516000036109e95783604051633250574960e11b815260040161038c9190611115565b805181602001fd5b6001600160e01b03198116630a85bd0160e11b14610a245783604051633250574960e11b815260040161038c9190611115565b5050505050565b60606000610a3883610e70565b60010190506000816001600160401b03811115610a5757610a57611202565b6040519080825280601f01601f191660200182016040528015610a81576020820181803683370190505b5090508181016020015b600019016f181899199a1a9b1b9c1cb0b131b232b360811b600a86061a8153600a8504945084610a8b57509392505050565b6000908152600260205260409020546001600160a01b031690565b8080610aec57506001600160a01b03821615155b15610ba5576000610afc846106ab565b90506001600160a01b03831615801590610b285750826001600160a01b0316816001600160a01b031614155b8015610b3b5750610b3981846105ef565b155b15610b5b578260405163a9fbf51f60e01b815260040161038c9190611115565b8115610ba35783856001600160a01b0316826001600160a01b03167f8c5be1e5ebec7d5bd14f71427d1e84f3dd0314c0f7b2291e5b200ac8c7c3b92560405160405180910390a45b505b5050600090815260046020526040902080546001600160a01b0319166001600160a01b0392909216919091179055565b600080610be184610abd565b90506001600160a01b03831615610bfd57610bfd818486610f46565b6001600160a01b03811615610c3b57610c1a600085600080610ad8565b6001600160a01b038116600090815260036020526040902080546000190190555b6001600160a01b03851615610c6a576001600160a01b0385166000908152600360205260409020805460010190555b60008481526002602052604080822080546001600160a01b0319166001600160a01b0389811691821790925591518793918516917fddf252ad1be2c89b69c2b068fc378daa952ba7f163c4a11628f55a4df523b3ef91a4949350505050565b6000610cd4836104de565b600083815260076020526040902054909150808214610d27576001600160a01b03841660009081526006602090815260408083208584528252808320548484528184208190558352600790915290208190555b5060009182526007602090815260408084208490556001600160a01b039094168352600681528383209183525290812055565b600854600090610d6c90600190611418565b60008381526009602052604081205460088054939450909284908110610d9457610d94611379565b906000526020600020015490508060088381548110610db557610db5611379565b6000918252602080832090910192909255828152600990915260408082208490558582528120556008805480610ded57610ded611439565b6001900381819060005260206000200160009055905550505050565b60006001610e16846104de565b610e209190611418565b6001600160a01b039093166000908152600660209081526040808320868452825280832085905593825260079052919091209190915550565b610e638383610f9c565b61047a6000848484610914565b60008072184f03e93ff9f4daa797ed6e38ed64bf6a1f0160401b8310610eaf5772184f03e93ff9f4daa797ed6e38ed64bf6a1f0160401b830492506040015b6904ee2d6d415b85acef8160201b8310610ed9576904ee2d6d415b85acef8160201b830492506020015b662386f26fc100008310610ef757662386f26fc10000830492506010015b6305f5e1008310610f0f576305f5e100830492506008015b6127108310610f2357612710830492506004015b60648310610f35576064830492506002015b600a83106102a65760010192915050565b610f51838383611001565b61047a576001600160a01b038316610f7f57604051637e27328960e01b81526004810182905260240161038c565b818160405163177e802f60e01b815260040161038c929190611360565b6001600160a01b038216610fc6576000604051633250574960e11b815260040161038c9190611115565b6000610fd48383600061070b565b90506001600160a01b0381161561047a5760006040516339e3563760e11b815260040161038c9190611115565b60006001600160a01b038316158015906107d85750826001600160a01b0316846001600160a01b0316148061103b575061103b84846105ef565b806107d85750826001600160a01b0316611054836106e3565b6001600160a01b031614949350505050565b6001600160e01b03198116811461065857600080fd5b60006020828403121561108e57600080fd5b81356105e881611066565b60005b838110156110b457818101518382015260200161109c565b50506000910152565b600081518084526110d5816020860160208601611099565b601f01601f19169290920160200192915050565b6020815260006105e860208301846110bd565b60006020828403121561110e57600080fd5b5035919050565b6001600160a01b0391909116815260200190565b80356001600160a01b038116811461114057600080fd5b919050565b6000806040838503121561115857600080fd5b61116183611129565b946020939093013593505050565b60008060006060848603121561118457600080fd5b61118d84611129565b925061119b60208501611129565b9150604084013590509250925092565b6000602082840312156111bd57600080fd5b6105e882611129565b600080604083850312156111d957600080fd5b6111e283611129565b9150602083013580151581146111f757600080fd5b809150509250929050565b634e487b7160e01b600052604160045260246000fd5b6000806000806080858703121561122e57600080fd5b61123785611129565b935061124560208601611129565b92506040850135915060608501356001600160401b038082111561126857600080fd5b818701915087601f83011261127c57600080fd5b81358181111561128e5761128e611202565b604051601f8201601f19908116603f011681019083821181831017156112b6576112b6611202565b816040528281528a60208487010111156112cf57600080fd5b82602086016020830137600060208483010152809550505050505092959194509250565b6000806040838503121561130657600080fd5b61130f83611129565b915061131d60208401611129565b90509250929050565b600181811c9082168061133a57607f821691505b60208210810361135a57634e487b7160e01b600052602260045260246000fd5b50919050565b6001600160a01b03929092168252602082015260400190565b634e487b7160e01b600052603260045260246000fd5b600083516113a1818460208801611099565b8351908301906113b5818360208801611099565b01949350505050565b6001600160a01b03858116825284166020820152604081018390526080606082018190526000906113f1908301846110bd565b9695505050505050565b60006020828403121561140d57600080fd5b81516105e881611066565b818103818111156102a657634e487b7160e01b600052601160045260246000fd5b634e487b7160e01b600052603160045260246000fdfea26469706673582212204593dbf51f81bb10e618697613647c15741912c73342d62620c592ae49f4cca864736f6c63430008150033",
    "linkReferences": {},
    "deployedLinkReferences": {}
}